{
  "contractName": "Votier",
  "abi": [
    {
      "inputs": [],
      "stateMutability": "nonpayable",
      "type": "constructor"
    },
    {
      "anonymous": false,
      "inputs": [
        {
          "indexed": false,
          "internalType": "address",
          "name": "admin",
          "type": "address"
        }
      ],
      "name": "AdminInitialized",
      "type": "event"
    },
    {
      "anonymous": false,
      "inputs": [
        {
          "indexed": false,
          "internalType": "uint256",
          "name": "id",
          "type": "uint256"
        },
        {
          "indexed": false,
          "internalType": "string",
          "name": "name",
          "type": "string"
        }
      ],
      "name": "CandidateAdded",
      "type": "event"
    },
    {
      "anonymous": false,
      "inputs": [
        {
          "indexed": false,
          "internalType": "string",
          "name": "message",
          "type": "string"
        }
      ],
      "name": "ContractDeployed",
      "type": "event"
    },
    {
      "anonymous": false,
      "inputs": [
        {
          "indexed": false,
          "internalType": "address",
          "name": "voter",
          "type": "address"
        },
        {
          "indexed": false,
          "internalType": "uint256",
          "name": "candidateId",
          "type": "uint256"
        }
      ],
      "name": "Voted",
      "type": "event"
    },
    {
      "inputs": [],
      "name": "admin",
      "outputs": [
        {
          "internalType": "address",
          "name": "",
          "type": "address"
        }
      ],
      "stateMutability": "view",
      "type": "function",
      "constant": true
    },
    {
      "inputs": [
        {
          "internalType": "string",
          "name": "",
          "type": "string"
        }
      ],
      "name": "candidateNames",
      "outputs": [
        {
          "internalType": "bool",
          "name": "",
          "type": "bool"
        }
      ],
      "stateMutability": "view",
      "type": "function",
      "constant": true
    },
    {
      "inputs": [
        {
          "internalType": "uint256",
          "name": "",
          "type": "uint256"
        }
      ],
      "name": "candidates",
      "outputs": [
        {
          "internalType": "uint256",
          "name": "id",
          "type": "uint256"
        },
        {
          "internalType": "string",
          "name": "name",
          "type": "string"
        },
        {
          "internalType": "uint256",
          "name": "voteCount",
          "type": "uint256"
        }
      ],
      "stateMutability": "view",
      "type": "function",
      "constant": true
    },
    {
      "inputs": [],
      "name": "candidatesCount",
      "outputs": [
        {
          "internalType": "uint256",
          "name": "",
          "type": "uint256"
        }
      ],
      "stateMutability": "view",
      "type": "function",
      "constant": true
    },
    {
      "inputs": [
        {
          "internalType": "address",
          "name": "",
          "type": "address"
        }
      ],
      "name": "voters",
      "outputs": [
        {
          "internalType": "bool",
          "name": "hasVoted",
          "type": "bool"
        },
        {
          "internalType": "uint256",
          "name": "votedCandidateId",
          "type": "uint256"
        }
      ],
      "stateMutability": "view",
      "type": "function",
      "constant": true
    },
    {
      "inputs": [
        {
          "internalType": "string",
          "name": "_name",
          "type": "string"
        }
      ],
      "name": "addCandidate",
      "outputs": [],
      "stateMutability": "nonpayable",
      "type": "function"
    },
    {
      "inputs": [
        {
          "internalType": "uint256",
          "name": "_candidateId",
          "type": "uint256"
        }
      ],
      "name": "vote",
      "outputs": [],
      "stateMutability": "nonpayable",
      "type": "function"
    },
    {
      "inputs": [],
      "name": "getAllCandidates",
      "outputs": [
        {
          "components": [
            {
              "internalType": "uint256",
              "name": "id",
              "type": "uint256"
            },
            {
              "internalType": "string",
              "name": "name",
              "type": "string"
            },
            {
              "internalType": "uint256",
              "name": "voteCount",
              "type": "uint256"
            }
          ],
          "internalType": "struct Votier.Candidate[]",
          "name": "",
          "type": "tuple[]"
        }
      ],
      "stateMutability": "view",
      "type": "function",
      "constant": true
    },
    {
      "inputs": [],
      "name": "getWinner",
      "outputs": [
        {
          "internalType": "uint256",
          "name": "winnerId",
          "type": "uint256"
        },
        {
          "internalType": "string",
          "name": "winnerName",
          "type": "string"
        },
        {
          "internalType": "uint256",
          "name": "highestVotes",
          "type": "uint256"
        }
      ],
      "stateMutability": "view",
      "type": "function",
      "constant": true
    }
  ],
  "bytecode": "0x60806040523480156200001157600080fd5b50336000806101000a81548173ffffffffffffffffffffffffffffffffffffffff021916908373ffffffffffffffffffffffffffffffffffffffff1602179055507f5241ea49209ad1d2ebe33c2a6d1bc23e7f01b91278237320a96f9b44da5d471260008054906101000a900473ffffffffffffffffffffffffffffffffffffffff16604051620000a391906200012d565b60405180910390a17f0d0ebe685f2c334e83847eb5e89a8d3d8919558c63ef37cf7fc3e7b86dd88b6d604051620000da90620001d1565b60405180910390a1620001f3565b600073ffffffffffffffffffffffffffffffffffffffff82169050919050565b60006200011582620000e8565b9050919050565b620001278162000108565b82525050565b60006020820190506200014460008301846200011c565b92915050565b600082825260208201905092915050565b7f566f74696e6753797374656d206465706c6f796564207375636365737366756c60008201527f6c79210000000000000000000000000000000000000000000000000000000000602082015250565b6000620001b96023836200014a565b9150620001c6826200015b565b604082019050919050565b60006020820190508181036000830152620001ec81620001aa565b9050919050565b61146680620002036000396000f3fe608060405234801561001057600080fd5b50600436106100935760003560e01c8063462e91ec11610066578063462e91ec146101225780638e7ea5b21461013e578063a3ec138d1461015e578063dea338151461018f578063f851a440146101bf57610093565b80630121b93f146100985780632d35a8a2146100b45780632e6997fe146100d25780633477ee2e146100f0575b600080fd5b6100b260048036038101906100ad9190610abb565b6101dd565b005b6100bc6103aa565b6040516100c99190610af7565b60405180910390f35b6100da6103b0565b6040516100e79190610ccc565b60405180910390f35b61010a60048036038101906101059190610abb565b610525565b60405161011993929190610d38565b60405180910390f35b61013c60048036038101906101379190610eab565b6105d7565b005b610146610809565b60405161015593929190610d38565b60405180910390f35b61017860048036038101906101739190610f52565b610922565b604051610186929190610f9a565b60405180910390f35b6101a960048036038101906101a49190610eab565b610953565b6040516101b69190610fc3565b60405180910390f35b6101c7610989565b6040516101d49190610fed565b60405180910390f35b600260003373ffffffffffffffffffffffffffffffffffffffff1673ffffffffffffffffffffffffffffffffffffffff16815260200190815260200160002060000160009054906101000a900460ff161561026d576040517f08c379a000000000000000000000000000000000000000000000000000000000815260040161026490611054565b60405180910390fd5b60008111801561027f57506003548111155b6102be576040517f08c379a00000000000000000000000000000000000000000000000000000000081526004016102b5906110c0565b60405180910390fd5b604051806040016040528060011515815260200182815250600260003373ffffffffffffffffffffffffffffffffffffffff1673ffffffffffffffffffffffffffffffffffffffff16815260200190815260200160002060008201518160000160006101000a81548160ff021916908315150217905550602082015181600101559050506001600082815260200190815260200160002060020160008154809291906103699061110f565b91905055507f4d99b957a2bc29a30ebd96a7be8e68fe50a3c701db28a91436490b7d53870ca4338260405161039f929190611157565b60405180910390a150565b60035481565b6060600060035467ffffffffffffffff8111156103d0576103cf610d80565b5b60405190808252806020026020018201604052801561040957816020015b6103f66109ad565b8152602001906001900390816103ee5790505b5090506000600190505b600354811161051d576001600082815260200190815260200160002060405180606001604052908160008201548152602001600182018054610454906111af565b80601f0160208091040260200160405190810160405280929190818152602001828054610480906111af565b80156104cd5780601f106104a2576101008083540402835291602001916104cd565b820191906000526020600020905b8154815290600101906020018083116104b057829003601f168201915b50505050508152602001600282015481525050826001836104ee91906111e0565b815181106104ff576104fe611214565b5b602002602001018190525080806105159061110f565b915050610413565b508091505090565b600160205280600052604060002060009150905080600001549080600101805461054e906111af565b80601f016020809104026020016040519081016040528092919081815260200182805461057a906111af565b80156105c75780601f1061059c576101008083540402835291602001916105c7565b820191906000526020600020905b8154815290600101906020018083116105aa57829003601f168201915b5050505050908060020154905083565b60008054906101000a900473ffffffffffffffffffffffffffffffffffffffff1673ffffffffffffffffffffffffffffffffffffffff163373ffffffffffffffffffffffffffffffffffffffff1614610665576040517f08c379a000000000000000000000000000000000000000000000000000000000815260040161065c906112b5565b60405180910390fd5b60008151116106a9576040517f08c379a00000000000000000000000000000000000000000000000000000000081526004016106a090611321565b60405180910390fd5b6004816040516106b9919061137d565b908152602001604051809103902060009054906101000a900460ff1615610715576040517f08c379a000000000000000000000000000000000000000000000000000000000815260040161070c906113e0565b60405180910390fd5b600360008154809291906107289061110f565b91905055506040518060600160405280600354815260200182815260200160008152506001600060035481526020019081526020016000206000820151816000015560208201518160010190805190602001906107869291906109ce565b506040820151816002015590505060016004826040516107a6919061137d565b908152602001604051809103902060006101000a81548160ff0219169083151502179055507fe83b2a43e7e82d975c8a0a6d2f045153c869e111136a34d1889ab7b598e396a3600354826040516107fe929190611400565b60405180910390a150565b6000606060008060009050600080600190505b600354811161087357826001600083815260200190815260200160002060020154111561086057600160008281526020019081526020016000206002015492508091505b808061086b9061110f565b91505061081c565b50809450600160008281526020019081526020016000206001018054610898906111af565b80601f01602080910402602001604051908101604052809291908181526020018280546108c4906111af565b80156109115780601f106108e657610100808354040283529160200191610911565b820191906000526020600020905b8154815290600101906020018083116108f457829003601f168201915b505050505093508192505050909192565b60026020528060005260406000206000915090508060000160009054906101000a900460ff16908060010154905082565b6004818051602081018201805184825260208301602085012081835280955050505050506000915054906101000a900460ff1681565b60008054906101000a900473ffffffffffffffffffffffffffffffffffffffff1681565b60405180606001604052806000815260200160608152602001600081525090565b8280546109da906111af565b90600052602060002090601f0160209004810192826109fc5760008555610a43565b82601f10610a1557805160ff1916838001178555610a43565b82800160010185558215610a43579182015b82811115610a42578251825591602001919060010190610a27565b5b509050610a509190610a54565b5090565b5b80821115610a6d576000816000905550600101610a55565b5090565b6000604051905090565b600080fd5b600080fd5b6000819050919050565b610a9881610a85565b8114610aa357600080fd5b50565b600081359050610ab581610a8f565b92915050565b600060208284031215610ad157610ad0610a7b565b5b6000610adf84828501610aa6565b91505092915050565b610af181610a85565b82525050565b6000602082019050610b0c6000830184610ae8565b92915050565b600081519050919050565b600082825260208201905092915050565b6000819050602082019050919050565b610b4781610a85565b82525050565b600081519050919050565b600082825260208201905092915050565b60005b83811015610b87578082015181840152602081019050610b6c565b83811115610b96576000848401525b50505050565b6000601f19601f8301169050919050565b6000610bb882610b4d565b610bc28185610b58565b9350610bd2818560208601610b69565b610bdb81610b9c565b840191505092915050565b6000606083016000830151610bfe6000860182610b3e565b5060208301518482036020860152610c168282610bad565b9150506040830151610c2b6040860182610b3e565b508091505092915050565b6000610c428383610be6565b905092915050565b6000602082019050919050565b6000610c6282610b12565b610c6c8185610b1d565b935083602082028501610c7e85610b2e565b8060005b85811015610cba5784840389528151610c9b8582610c36565b9450610ca683610c4a565b925060208a01995050600181019050610c82565b50829750879550505050505092915050565b60006020820190508181036000830152610ce68184610c57565b905092915050565b600082825260208201905092915050565b6000610d0a82610b4d565b610d148185610cee565b9350610d24818560208601610b69565b610d2d81610b9c565b840191505092915050565b6000606082019050610d4d6000830186610ae8565b8181036020830152610d5f8185610cff565b9050610d6e6040830184610ae8565b949350505050565b600080fd5b600080fd5b7f4e487b7100000000000000000000000000000000000000000000000000000000600052604160045260246000fd5b610db882610b9c565b810181811067ffffffffffffffff82111715610dd757610dd6610d80565b5b80604052505050565b6000610dea610a71565b9050610df68282610daf565b919050565b600067ffffffffffffffff821115610e1657610e15610d80565b5b610e1f82610b9c565b9050602081019050919050565b82818337600083830152505050565b6000610e4e610e4984610dfb565b610de0565b905082815260208101848484011115610e6a57610e69610d7b565b5b610e75848285610e2c565b509392505050565b600082601f830112610e9257610e91610d76565b5b8135610ea2848260208601610e3b565b91505092915050565b600060208284031215610ec157610ec0610a7b565b5b600082013567ffffffffffffffff811115610edf57610ede610a80565b5b610eeb84828501610e7d565b91505092915050565b600073ffffffffffffffffffffffffffffffffffffffff82169050919050565b6000610f1f82610ef4565b9050919050565b610f2f81610f14565b8114610f3a57600080fd5b50565b600081359050610f4c81610f26565b92915050565b600060208284031215610f6857610f67610a7b565b5b6000610f7684828501610f3d565b91505092915050565b60008115159050919050565b610f9481610f7f565b82525050565b6000604082019050610faf6000830185610f8b565b610fbc6020830184610ae8565b9392505050565b6000602082019050610fd86000830184610f8b565b92915050565b610fe781610f14565b82525050565b60006020820190506110026000830184610fde565b92915050565b7f596f75206861766520616c726561647920766f74656400000000000000000000600082015250565b600061103e601683610cee565b915061104982611008565b602082019050919050565b6000602082019050818103600083015261106d81611031565b9050919050565b7f496e76616c69642063616e646964617465204944000000000000000000000000600082015250565b60006110aa601483610cee565b91506110b582611074565b602082019050919050565b600060208201905081810360008301526110d98161109d565b9050919050565b7f4e487b7100000000000000000000000000000000000000000000000000000000600052601160045260246000fd5b600061111a82610a85565b91507fffffffffffffffffffffffffffffffffffffffffffffffffffffffffffffffff820361114c5761114b6110e0565b5b600182019050919050565b600060408201905061116c6000830185610fde565b6111796020830184610ae8565b9392505050565b7f4e487b7100000000000000000000000000000000000000000000000000000000600052602260045260246000fd5b600060028204905060018216806111c757607f821691505b6020821081036111da576111d9611180565b5b50919050565b60006111eb82610a85565b91506111f683610a85565b925082821015611209576112086110e0565b5b828203905092915050565b7f4e487b7100000000000000000000000000000000000000000000000000000000600052603260045260246000fd5b7f4f6e6c792061646d696e2063616e20706572666f726d2074686973206163746960008201527f6f6e000000000000000000000000000000000000000000000000000000000000602082015250565b600061129f602283610cee565b91506112aa82611243565b604082019050919050565b600060208201905081810360008301526112ce81611292565b9050919050565b7f43616e646964617465206e616d652063616e6e6f7420626520656d7074792e00600082015250565b600061130b601f83610cee565b9150611316826112d5565b602082019050919050565b6000602082019050818103600083015261133a816112fe565b9050919050565b600081905092915050565b600061135782610b4d565b6113618185611341565b9350611371818560208601610b69565b80840191505092915050565b6000611389828461134c565b915081905092915050565b7f43616e646964617465206e616d6520616c7265616479206578697374732e0000600082015250565b60006113ca601e83610cee565b91506113d582611394565b602082019050919050565b600060208201905081810360008301526113f9816113bd565b9050919050565b60006040820190506114156000830185610ae8565b81810360208301526114278184610cff565b9050939250505056fea26469706673582212205190efe4e121130ce116ff4cb554492e7a7b9b96f03952fd71dc3961413818c464736f6c634300080d0033",
  "immutableReferences": {},
  "source": "// SPDX-License-Identifier: MIT\npragma solidity ^0.8.13;\n\n/**\n * @title Votier\n * @dev A blockchain-based voting system for selecting the best candidate.\n * Admins can add candidates, and users can vote for their preferred candidate.\n * Ensures transparency and immutability of the voting process.\n */\ncontract Votier {\n    // Structure to hold candidate details\n    struct Candidate {\n        uint id; // Unique ID of the candidate\n        string name; // Name of the candidate\n        uint voteCount; // Total votes received by the candidate\n    }\n\n    // Structure to hold voter details\n    struct Voter {\n        bool hasVoted; // Whether the voter has already voted\n        uint votedCandidateId; // ID of the candidate the voter voted for\n    }\n\n    address public admin; // Address of the admin managing the voting system\n    mapping(uint => Candidate) public candidates; // Mapping of candidate ID to Candidate details\n    mapping(address => Voter) public voters; // Mapping of voter address to Voter details\n    uint public candidatesCount; // Total number of candidates added\n    mapping(string => bool) public candidateNames; // Mapping to track if a candidate name already exists\n\n    // Event emitted when a new candidate is added\n    event CandidateAdded(uint id, string name);\n\n    // Event emitted when a vote is cast\n    event Voted(address voter, uint candidateId);\n\n    event AdminInitialized(address admin); // Debugging event\n    event ContractDeployed(string message); // Debugging event\n\n    // Modifier to restrict access to admin-only functions\n    modifier onlyAdmin() {\n        require(msg.sender == admin, \"Only admin can perform this action\");\n        _;\n    }\n\n    /**\n     * @dev Constructor sets the deploying address as the admin.\n     */\n    constructor() {\n        admin = msg.sender;\n        emit AdminInitialized(admin);\n        emit ContractDeployed(\"VotingSystem deployed successfully!\");\n    }\n\n    /**\n     * @dev Adds a new candidate to the voting system.\n     * @param _name The name of the candidate to be added.\n     */\n    function addCandidate(string memory _name) public onlyAdmin {\n        require(bytes(_name).length > 0, \"Candidate name cannot be empty.\");\n        require(!candidateNames[_name], \"Candidate name already exists.\");\n        candidatesCount++;\n        candidates[candidatesCount] = Candidate(candidatesCount, _name, 0);\n        candidateNames[_name] = true; // Mark the name as used\n        emit CandidateAdded(candidatesCount, _name);\n    }\n\n    /**\n     * @dev Allows a user to vote for a candidate.\n     * @param _candidateId The ID of the candidate to vote for.\n     */\n    function vote(uint _candidateId) public {\n        require(!voters[msg.sender].hasVoted, \"You have already voted\");\n        require(_candidateId > 0 && _candidateId <= candidatesCount, \"Invalid candidate ID\");\n\n        voters[msg.sender] = Voter(true, _candidateId);\n        candidates[_candidateId].voteCount++;\n\n        emit Voted(msg.sender, _candidateId);\n    }\n\n    // Function to get a candidate by ID (no need to manually define it)\n    // The getter is automatically available due to `public` keyword in the mapping\n\n    // Function to get all candidates (iterate using candidatesCount)\n    function getAllCandidates() public view returns (Candidate[] memory) {\n        Candidate[] memory allCandidates = new Candidate[](candidatesCount);\n        \n        for (uint i = 1; i <= candidatesCount; i++) {\n            allCandidates[i - 1] = candidates[i];\n        }\n        \n        return allCandidates;\n    }\n    /**\n     * @dev Determines the winner of the voting process.\n     * @return winnerId The ID of the winning candidate.\n     * @return winnerName The name of the winning candidate.\n     * @return highestVotes The highest number of votes received by a candidate.\n     */\n    function getWinner() public view returns (uint winnerId, string memory winnerName, uint highestVotes) {\n        uint highestVoteCount = 0;\n        uint winningCandidateId = 0;\n\n        for (uint i = 1; i <= candidatesCount; i++) {\n            if (candidates[i].voteCount > highestVoteCount) {\n                highestVoteCount = candidates[i].voteCount;\n                winningCandidateId = i;\n            }\n        }\n\n        winnerId = winningCandidateId;\n        winnerName = candidates[winningCandidateId].name;\n        highestVotes = highestVoteCount;\n    }\n}\n",
  "sourcePath": "/home/chev/Documents/projects/ofcskn/Votier/smart-contracts/contracts/Votier.sol",
  "compiler": {
    "name": "solc",
    "version": "0.8.13+commit.abaa5c0e.Emscripten.clang"
  },
  "schemaVersion": "3.4.16",
  "updatedAt": "2024-12-16T10:48:27.944Z",
  "networkType": "ethereum",
  "devdoc": {
    "details": "A blockchain-based voting system for selecting the best candidate. Admins can add candidates, and users can vote for their preferred candidate. Ensures transparency and immutability of the voting process.",
    "kind": "dev",
    "methods": {
      "addCandidate(string)": {
        "details": "Adds a new candidate to the voting system.",
        "params": {
          "_name": "The name of the candidate to be added."
        }
      },
      "constructor": {
        "details": "Constructor sets the deploying address as the admin."
      },
      "getWinner()": {
        "details": "Determines the winner of the voting process.",
        "returns": {
          "highestVotes": "The highest number of votes received by a candidate.",
          "winnerId": "The ID of the winning candidate.",
          "winnerName": "The name of the winning candidate."
        }
      },
      "vote(uint256)": {
        "details": "Allows a user to vote for a candidate.",
        "params": {
          "_candidateId": "The ID of the candidate to vote for."
        }
      }
    },
    "title": "Votier",
    "version": 1
  },
  "userdoc": {
    "kind": "user",
    "methods": {},
    "version": 1
  }
}