{
  "contractName": "Votier",
  "abi": [
    {
      "inputs": [
        {
          "internalType": "uint256",
          "name": "_maxCandidatesCount",
          "type": "uint256"
        },
        {
          "internalType": "uint256",
          "name": "_endVotingTime",
          "type": "uint256"
        }
      ],
      "stateMutability": "nonpayable",
      "type": "constructor"
    },
    {
      "anonymous": false,
      "inputs": [
        {
          "indexed": false,
          "internalType": "address",
          "name": "admin",
          "type": "address"
        }
      ],
      "name": "AdminInitialized",
      "type": "event"
    },
    {
      "anonymous": false,
      "inputs": [
        {
          "indexed": false,
          "internalType": "uint256",
          "name": "id",
          "type": "uint256"
        },
        {
          "indexed": false,
          "internalType": "string",
          "name": "name",
          "type": "string"
        }
      ],
      "name": "CandidateAdded",
      "type": "event"
    },
    {
      "anonymous": false,
      "inputs": [
        {
          "indexed": false,
          "internalType": "string",
          "name": "message",
          "type": "string"
        }
      ],
      "name": "ContractDeployed",
      "type": "event"
    },
    {
      "anonymous": false,
      "inputs": [
        {
          "indexed": false,
          "internalType": "address",
          "name": "voter",
          "type": "address"
        },
        {
          "indexed": true,
          "internalType": "uint256",
          "name": "candidateId",
          "type": "uint256"
        },
        {
          "indexed": false,
          "internalType": "uint256",
          "name": "votedTime",
          "type": "uint256"
        },
        {
          "indexed": false,
          "internalType": "uint256",
          "name": "newVoteCount",
          "type": "uint256"
        }
      ],
      "name": "Voted",
      "type": "event"
    },
    {
      "anonymous": false,
      "inputs": [
        {
          "indexed": false,
          "internalType": "uint256",
          "name": "candidateId",
          "type": "uint256"
        }
      ],
      "name": "WinnerDeclared",
      "type": "event"
    },
    {
      "inputs": [],
      "name": "admin",
      "outputs": [
        {
          "internalType": "address",
          "name": "",
          "type": "address"
        }
      ],
      "stateMutability": "view",
      "type": "function",
      "constant": true
    },
    {
      "inputs": [
        {
          "internalType": "string",
          "name": "",
          "type": "string"
        }
      ],
      "name": "candidateNames",
      "outputs": [
        {
          "internalType": "bool",
          "name": "",
          "type": "bool"
        }
      ],
      "stateMutability": "view",
      "type": "function",
      "constant": true
    },
    {
      "inputs": [
        {
          "internalType": "uint256",
          "name": "",
          "type": "uint256"
        }
      ],
      "name": "candidates",
      "outputs": [
        {
          "internalType": "uint256",
          "name": "id",
          "type": "uint256"
        },
        {
          "internalType": "string",
          "name": "name",
          "type": "string"
        },
        {
          "internalType": "uint256",
          "name": "voteCount",
          "type": "uint256"
        },
        {
          "internalType": "bool",
          "name": "tied",
          "type": "bool"
        }
      ],
      "stateMutability": "view",
      "type": "function",
      "constant": true
    },
    {
      "inputs": [],
      "name": "candidatesCount",
      "outputs": [
        {
          "internalType": "uint256",
          "name": "",
          "type": "uint256"
        }
      ],
      "stateMutability": "view",
      "type": "function",
      "constant": true
    },
    {
      "inputs": [],
      "name": "creationTime",
      "outputs": [
        {
          "internalType": "uint256",
          "name": "",
          "type": "uint256"
        }
      ],
      "stateMutability": "view",
      "type": "function",
      "constant": true
    },
    {
      "inputs": [],
      "name": "endVotingTime",
      "outputs": [
        {
          "internalType": "uint256",
          "name": "",
          "type": "uint256"
        }
      ],
      "stateMutability": "view",
      "type": "function",
      "constant": true
    },
    {
      "inputs": [],
      "name": "isTieBreakerActive",
      "outputs": [
        {
          "internalType": "bool",
          "name": "",
          "type": "bool"
        }
      ],
      "stateMutability": "view",
      "type": "function",
      "constant": true
    },
    {
      "inputs": [],
      "name": "maxCandidatesCount",
      "outputs": [
        {
          "internalType": "uint256",
          "name": "",
          "type": "uint256"
        }
      ],
      "stateMutability": "view",
      "type": "function",
      "constant": true
    },
    {
      "inputs": [],
      "name": "tiedCandidatesCount",
      "outputs": [
        {
          "internalType": "uint256",
          "name": "",
          "type": "uint256"
        }
      ],
      "stateMutability": "view",
      "type": "function",
      "constant": true
    },
    {
      "inputs": [
        {
          "internalType": "address",
          "name": "",
          "type": "address"
        }
      ],
      "name": "voters",
      "outputs": [
        {
          "internalType": "bool",
          "name": "hasVoted",
          "type": "bool"
        },
        {
          "internalType": "bool",
          "name": "hasVotedForTie",
          "type": "bool"
        },
        {
          "internalType": "uint256",
          "name": "votedCandidateId",
          "type": "uint256"
        },
        {
          "internalType": "uint256",
          "name": "votedTime",
          "type": "uint256"
        },
        {
          "internalType": "uint256",
          "name": "tieVotedTime",
          "type": "uint256"
        }
      ],
      "stateMutability": "view",
      "type": "function",
      "constant": true
    },
    {
      "inputs": [],
      "name": "votesCount",
      "outputs": [
        {
          "internalType": "uint256",
          "name": "",
          "type": "uint256"
        }
      ],
      "stateMutability": "view",
      "type": "function",
      "constant": true
    },
    {
      "inputs": [],
      "name": "startVoting",
      "outputs": [],
      "stateMutability": "nonpayable",
      "type": "function"
    },
    {
      "inputs": [],
      "name": "endVoting",
      "outputs": [],
      "stateMutability": "nonpayable",
      "type": "function"
    },
    {
      "inputs": [],
      "name": "getAllCandidates",
      "outputs": [
        {
          "components": [
            {
              "internalType": "uint256",
              "name": "id",
              "type": "uint256"
            },
            {
              "internalType": "string",
              "name": "name",
              "type": "string"
            },
            {
              "internalType": "uint256",
              "name": "voteCount",
              "type": "uint256"
            },
            {
              "internalType": "bool",
              "name": "tied",
              "type": "bool"
            }
          ],
          "internalType": "struct Votier.Candidate[]",
          "name": "",
          "type": "tuple[]"
        }
      ],
      "stateMutability": "view",
      "type": "function",
      "constant": true
    },
    {
      "inputs": [
        {
          "internalType": "string",
          "name": "_name",
          "type": "string"
        }
      ],
      "name": "addCandidate",
      "outputs": [],
      "stateMutability": "nonpayable",
      "type": "function"
    },
    {
      "inputs": [
        {
          "internalType": "uint256",
          "name": "_candidateId",
          "type": "uint256"
        }
      ],
      "name": "vote",
      "outputs": [],
      "stateMutability": "nonpayable",
      "type": "function"
    },
    {
      "inputs": [
        {
          "internalType": "uint256",
          "name": "_candidateId",
          "type": "uint256"
        }
      ],
      "name": "voteInFirst",
      "outputs": [],
      "stateMutability": "nonpayable",
      "type": "function"
    },
    {
      "inputs": [
        {
          "internalType": "uint256",
          "name": "_candidateId",
          "type": "uint256"
        }
      ],
      "name": "voteInTieBreaker",
      "outputs": [],
      "stateMutability": "nonpayable",
      "type": "function"
    },
    {
      "inputs": [],
      "name": "startTieBreaker",
      "outputs": [],
      "stateMutability": "nonpayable",
      "type": "function"
    },
    {
      "inputs": [],
      "name": "getWinner",
      "outputs": [
        {
          "internalType": "uint256",
          "name": "winnerId",
          "type": "uint256"
        },
        {
          "internalType": "string",
          "name": "winnerName",
          "type": "string"
        },
        {
          "internalType": "uint256",
          "name": "highestVotes",
          "type": "uint256"
        }
      ],
      "stateMutability": "nonpayable",
      "type": "function"
    }
  ],
  "bytecode": "0x60c06040523480156200001157600080fd5b50604051620032be380380620032be833981810160405281019062000037919062000283565b60006103e88262000049919062000328565b90506001831180156200005c5750603283105b6200009e576040517f08c379a00000000000000000000000000000000000000000000000000000000081526004016200009590620003e7565b60405180910390fd5b428111620000e3576040517f08c379a0000000000000000000000000000000000000000000000000000000008152600401620000da906200047f565b60405180910390fd5b61012c42620000f39190620004a1565b81101562000138576040517f08c379a00000000000000000000000000000000000000000000000000000000081526004016200012f9062000574565b60405180910390fd5b42608081815250508060a0818152505082600681905550336000806101000a81548173ffffffffffffffffffffffffffffffffffffffff021916908373ffffffffffffffffffffffffffffffffffffffff1602179055506000600a60016101000a81548160ff0219169083151502179055507f5241ea49209ad1d2ebe33c2a6d1bc23e7f01b91278237320a96f9b44da5d471260008054906101000a900473ffffffffffffffffffffffffffffffffffffffff16604051620001fb9190620005db565b60405180910390a17f0d0ebe685f2c334e83847eb5e89a8d3d8919558c63ef37cf7fc3e7b86dd88b6d60405162000232906200066e565b60405180910390a150505062000690565b600080fd5b6000819050919050565b6200025d8162000248565b81146200026957600080fd5b50565b6000815190506200027d8162000252565b92915050565b600080604083850312156200029d576200029c62000243565b5b6000620002ad858286016200026c565b9250506020620002c0858286016200026c565b9150509250929050565b7f4e487b7100000000000000000000000000000000000000000000000000000000600052601260045260246000fd5b7f4e487b7100000000000000000000000000000000000000000000000000000000600052601160045260246000fd5b6000620003358262000248565b9150620003428362000248565b925082620003555762000354620002ca565b5b828204905092915050565b600082825260208201905092915050565b7f43616e64696461746573206d757374206265206174206c656173742074776f2060008201527f70656f706c6520616e64203c35302e0000000000000000000000000000000000602082015250565b6000620003cf602f8362000360565b9150620003dc8262000371565b604082019050919050565b600060208201905081810360008301526200040281620003c0565b9050919050565b7f456e6420766f74696e672074696d65206d75737420626520696e20746865206660008201527f7574757265000000000000000000000000000000000000000000000000000000602082015250565b60006200046760258362000360565b9150620004748262000409565b604082019050919050565b600060208201905081810360008301526200049a8162000458565b9050919050565b6000620004ae8262000248565b9150620004bb8362000248565b9250827fffffffffffffffffffffffffffffffffffffffffffffffffffffffffffffffff03821115620004f357620004f2620002f9565b5b828201905092915050565b7f566f74696e67206d757374206c617374206174206c656173742035206d696e7560008201527f7465730000000000000000000000000000000000000000000000000000000000602082015250565b60006200055c60238362000360565b91506200056982620004fe565b604082019050919050565b600060208201905081810360008301526200058f816200054d565b9050919050565b600073ffffffffffffffffffffffffffffffffffffffff82169050919050565b6000620005c38262000596565b9050919050565b620005d581620005b6565b82525050565b6000602082019050620005f26000830184620005ca565b92915050565b7f566f74696e6753797374656d206465706c6f796564207375636365737366756c60008201527f6c79210000000000000000000000000000000000000000000000000000000000602082015250565b60006200065660238362000360565b91506200066382620005f8565b604082019050919050565b60006020820190508181036000830152620006898162000647565b9050919050565b60805160a051612bf3620006cb6000396000818161086601528181610c740152818161126001526115630152600061190d0152612bf36000f3fe608060405234801561001057600080fd5b506004361061012c5760003560e01c806366d0ea83116100ad578063c3403ddf11610071578063c3403ddf146102f0578063c747a9d0146102fa578063d8270dce14610318578063dea3381514610336578063f851a440146103665761012c565b806366d0ea831461025657806378b0f949146102605780638778b27d1461027e5780638e7ea5b21461029c578063a3ec138d146102bc5761012c565b80632d35a8a2116100f45780632d35a8a2146101af5780632e6997fe146101cd5780633477ee2e146101eb578063462e91ec1461021e578063558419611461023a5761012c565b80630121b93f14610131578063157ce10c1461014d57806315b14ece1461016b5780631961847b146101875780631ec6b60a146101a5575b600080fd5b61014b60048036038101906101469190611aa0565b610384565b005b6101556104a0565b6040516101629190611ae8565b60405180910390f35b61018560048036038101906101809190611aa0565b6104b3565b005b61018f610864565b60405161019c9190611b12565b60405180910390f35b6101ad610888565b005b6101b7610989565b6040516101c49190611b12565b60405180910390f35b6101d561098f565b6040516101e29190611d09565b60405180910390f35b61020560048036038101906102009190611aa0565b610b1f565b6040516102159493929190611d75565b60405180910390f35b61023860048036038101906102339190611ef6565b610be4565b005b610254600480360381019061024f9190611aa0565b610f5c565b005b61025e611153565b005b610268611443565b6040516102759190611b12565b60405180910390f35b610286611449565b6040516102939190611b12565b60405180910390f35b6102a461144f565b6040516102b393929190611f3f565b60405180910390f35b6102d660048036038101906102d19190611fdb565b6117b4565b6040516102e7959493929190612008565b60405180910390f35b6102f8611804565b005b610302611905565b60405161030f9190611b12565b60405180910390f35b61032061190b565b60405161032d9190611b12565b60405180910390f35b610350600480360381019061034b9190611ef6565b61192f565b60405161035d9190611ae8565b60405180910390f35b61036e611965565b60405161037b919061206a565b60405180910390f35b60011515600a60019054906101000a900460ff161515146103da576040517f08c379a00000000000000000000000000000000000000000000000000000000081526004016103d1906120d1565b60405180910390fd5b6000811180156103ec57506004548111155b61042b576040517f08c379a00000000000000000000000000000000000000000000000000000000081526004016104229061213d565b60405180910390fd5b600160045411610470576040517f08c379a0000000000000000000000000000000000000000000000000000000008152600401610467906121cf565b60405180910390fd5b600a60009054906101000a900460ff16156104935761048e816104b3565b61049d565b61049c81610f5c565b5b50565b600a60009054906101000a900460ff1681565b600a60009054906101000a900460ff16610502576040517f08c379a00000000000000000000000000000000000000000000000000000000081526004016104f99061223b565b60405180910390fd5b600260003373ffffffffffffffffffffffffffffffffffffffff1673ffffffffffffffffffffffffffffffffffffffff16815260200190815260200160002060000160019054906101000a900460ff1615610592576040517f08c379a0000000000000000000000000000000000000000000000000000000008152600401610589906122cd565b60405180910390fd5b600080600190505b6004548111610610578260016000838152602001908152602001600020600001541480156105ef5750600115156001600083815260200190815260200160002060030160009054906101000a900460ff161515145b156105fd5760019150610610565b80806106089061231c565b91505061059a565b5080610651576040517f08c379a0000000000000000000000000000000000000000000000000000000008152600401610648906123d6565b60405180910390fd5b6000600260003373ffffffffffffffffffffffffffffffffffffffff1673ffffffffffffffffffffffffffffffffffffffff168152602001908152602001600020600201540361076e576040518060a001604052806000151581526020016001151581526020018381526020016000815260200142815250600260003373ffffffffffffffffffffffffffffffffffffffff1673ffffffffffffffffffffffffffffffffffffffff16815260200190815260200160002060008201518160000160006101000a81548160ff02191690831515021790555060208201518160000160016101000a81548160ff0219169083151502179055506040820151816001015560608201518160020155608082015181600301559050506107ca565b6001600260003373ffffffffffffffffffffffffffffffffffffffff1673ffffffffffffffffffffffffffffffffffffffff16815260200190815260200160002060000160016101000a81548160ff0219169083151502179055505b6001600083815260200190815260200160002060020160008154809291906107f19061231c565b9190505550600360008154809291906108099061231c565b9190505550817fc32b42768a47a585121e9b8d7a2ab9d3f34c326a192dee11ee1732e3d18313f333426001600087815260200190815260200160002060020154604051610858939291906123f6565b60405180910390a25050565b7f000000000000000000000000000000000000000000000000000000000000000081565b60008054906101000a900473ffffffffffffffffffffffffffffffffffffffff1673ffffffffffffffffffffffffffffffffffffffff163373ffffffffffffffffffffffffffffffffffffffff1614610916576040517f08c379a000000000000000000000000000000000000000000000000000000000815260040161090d9061249f565b60405180910390fd5b60001515600a60019054906101000a900460ff1615151461096c576040517f08c379a000000000000000000000000000000000000000000000000000000000815260040161096390612531565b60405180910390fd5b6001600a60016101000a81548160ff021916908315150217905550565b60045481565b6060600060045467ffffffffffffffff8111156109af576109ae611dcb565b5b6040519080825280602002602001820160405280156109e857816020015b6109d5611989565b8152602001906001900390816109cd5790505b5090506000600190505b6004548111610b17576001600082815260200190815260200160002060405180608001604052908160008201548152602001600182018054610a3390612580565b80601f0160208091040260200160405190810160405280929190818152602001828054610a5f90612580565b8015610aac5780601f10610a8157610100808354040283529160200191610aac565b820191906000526020600020905b815481529060010190602001808311610a8f57829003601f168201915b50505050508152602001600282015481526020016003820160009054906101000a900460ff16151515158152505082600183610ae891906125b1565b81518110610af957610af86125e5565b5b60200260200101819052508080610b0f9061231c565b9150506109f2565b508091505090565b6001602052806000526040600020600091509050806000015490806001018054610b4890612580565b80601f0160208091040260200160405190810160405280929190818152602001828054610b7490612580565b8015610bc15780601f10610b9657610100808354040283529160200191610bc1565b820191906000526020600020905b815481529060010190602001808311610ba457829003601f168201915b5050505050908060020154908060030160009054906101000a900460ff16905084565b60008054906101000a900473ffffffffffffffffffffffffffffffffffffffff1673ffffffffffffffffffffffffffffffffffffffff163373ffffffffffffffffffffffffffffffffffffffff1614610c72576040517f08c379a0000000000000000000000000000000000000000000000000000000008152600401610c699061249f565b60405180910390fd5b7f000000000000000000000000000000000000000000000000000000000000000042108015610cb4575060001515600a60009054906101000a900460ff161515145b610cf3576040517f08c379a0000000000000000000000000000000000000000000000000000000008152600401610cea90612660565b60405180910390fd5b60001515600a60019054906101000a900460ff16151514610d49576040517f08c379a0000000000000000000000000000000000000000000000000000000008152600401610d4090612531565b60405180910390fd5b60045460065411610d8f576040517f08c379a0000000000000000000000000000000000000000000000000000000008152600401610d86906126f2565b60405180910390fd5b6000815111610dd3576040517f08c379a0000000000000000000000000000000000000000000000000000000008152600401610dca9061275e565b60405180910390fd5b600781604051610de391906127ba565b908152602001604051809103902060009054906101000a900460ff1615610e3f576040517f08c379a0000000000000000000000000000000000000000000000000000000008152600401610e369061281d565b60405180910390fd5b60046000815480929190610e529061231c565b9190505550604051806080016040528060045481526020018281526020016000815260200160001515815250600160006004548152602001908152602001600020600082015181600001556020820151816001019080519060200190610eb99291906119b3565b506040820151816002015560608201518160030160006101000a81548160ff0219169083151502179055509050506001600782604051610ef991906127ba565b908152602001604051809103902060006101000a81548160ff0219169083151502179055507fe83b2a43e7e82d975c8a0a6d2f045153c869e111136a34d1889ab7b598e396a360045482604051610f5192919061283d565b60405180910390a150565b600260003373ffffffffffffffffffffffffffffffffffffffff1673ffffffffffffffffffffffffffffffffffffffff16815260200190815260200160002060000160009054906101000a900460ff1615610fec576040517f08c379a0000000000000000000000000000000000000000000000000000000008152600401610fe3906128b9565b60405180910390fd5b6040518060a001604052806001151581526020016000151581526020018281526020014281526020016000815250600260003373ffffffffffffffffffffffffffffffffffffffff1673ffffffffffffffffffffffffffffffffffffffff16815260200190815260200160002060008201518160000160006101000a81548160ff02191690831515021790555060208201518160000160016101000a81548160ff0219169083151502179055506040820151816001015560608201518160020155608082015181600301559050506001600082815260200190815260200160002060020160008154809291906110e19061231c565b9190505550600360008154809291906110f99061231c565b9190505550807fc32b42768a47a585121e9b8d7a2ab9d3f34c326a192dee11ee1732e3d18313f333426001600086815260200190815260200160002060020154604051611148939291906123f6565b60405180910390a250565b60008054906101000a900473ffffffffffffffffffffffffffffffffffffffff1673ffffffffffffffffffffffffffffffffffffffff163373ffffffffffffffffffffffffffffffffffffffff16146111e1576040517f08c379a00000000000000000000000000000000000000000000000000000000081526004016111d89061249f565b60405180910390fd5b600a60009054906101000a900460ff161561125e576009544211801561121a575060011515600a60009054906101000a900460ff161515145b611259576040517f08c379a00000000000000000000000000000000000000000000000000000000081526004016112509061294b565b60405180910390fd5b6112e0565b7f0000000000000000000000000000000000000000000000000000000000000000421180156112a0575060001515600a60009054906101000a900460ff161515145b6112df576040517f08c379a00000000000000000000000000000000000000000000000000000000081526004016112d6906129b7565b60405180910390fd5b5b600080600190505b600454811161133c57816001600083815260200190815260200160002060020154111561132957600160008281526020019081526020016000206002015491505b80806113349061231c565b9150506112e8565b506000600190505b60045481116113c457816001600083815260200190815260200160002060020154036113b157600180600083815260200190815260200160002060030160006101000a81548160ff021916908315150217905550600560008154809291906113ab9061231c565b91905055505b80806113bc9061231c565b915050611344565b5060016005541161140a576040517f08c379a000000000000000000000000000000000000000000000000000000000815260040161140190612a23565b60405180910390fd5b6001600a60006101000a81548160ff02191690831515021790555042600881905550610e104261143a9190612a43565b60098190555050565b60065481565b60035481565b6000606060008060009054906101000a900473ffffffffffffffffffffffffffffffffffffffff1673ffffffffffffffffffffffffffffffffffffffff163373ffffffffffffffffffffffffffffffffffffffff16146114e4576040517f08c379a00000000000000000000000000000000000000000000000000000000081526004016114db9061249f565b60405180910390fd5b600a60009054906101000a900460ff1615611561576009544211801561151d575060011515600a60009054906101000a900460ff161515145b61155c576040517f08c379a00000000000000000000000000000000000000000000000000000000081526004016115539061294b565b60405180910390fd5b6115e3565b7f0000000000000000000000000000000000000000000000000000000000000000421180156115a3575060001515600a60009054906101000a900460ff161515145b6115e2576040517f08c379a00000000000000000000000000000000000000000000000000000000081526004016115d9906129b7565b60405180910390fd5b5b600160045411611628576040517f08c379a000000000000000000000000000000000000000000000000000000000815260040161161f90612b0b565b60405180910390fd5b60016003541161166d576040517f08c379a000000000000000000000000000000000000000000000000000000000815260040161166490612b9d565b60405180910390fd5b6000806000600190505b60045481116116ce5782600160008381526020019081526020016000206002015411156116bb57600160008281526020019081526020016000206002015492508091505b80806116c69061231c565b915050611677565b507fc3846bd1acff429d0ab7da1331cfef5e9293c246b4ee97dbd7a95a5c1edeffa6816040516116fe9190611b12565b60405180910390a180945060016000828152602001908152602001600020600101805461172a90612580565b80601f016020809104026020016040519081016040528092919081815260200182805461175690612580565b80156117a35780601f10611778576101008083540402835291602001916117a3565b820191906000526020600020905b81548152906001019060200180831161178657829003601f168201915b505050505093508192505050909192565b60026020528060005260406000206000915090508060000160009054906101000a900460ff16908060000160019054906101000a900460ff16908060010154908060020154908060030154905085565b60008054906101000a900473ffffffffffffffffffffffffffffffffffffffff1673ffffffffffffffffffffffffffffffffffffffff163373ffffffffffffffffffffffffffffffffffffffff1614611892576040517f08c379a00000000000000000000000000000000000000000000000000000000081526004016118899061249f565b60405180910390fd5b60011515600a60019054906101000a900460ff161515146118e8576040517f08c379a00000000000000000000000000000000000000000000000000000000081526004016118df906120d1565b60405180910390fd5b6000600a60016101000a81548160ff021916908315150217905550565b60055481565b7f000000000000000000000000000000000000000000000000000000000000000081565b6007818051602081018201805184825260208301602085012081835280955050505050506000915054906101000a900460ff1681565b60008054906101000a900473ffffffffffffffffffffffffffffffffffffffff1681565b60405180608001604052806000815260200160608152602001600081526020016000151581525090565b8280546119bf90612580565b90600052602060002090601f0160209004810192826119e15760008555611a28565b82601f106119fa57805160ff1916838001178555611a28565b82800160010185558215611a28579182015b82811115611a27578251825591602001919060010190611a0c565b5b509050611a359190611a39565b5090565b5b80821115611a52576000816000905550600101611a3a565b5090565b6000604051905090565b600080fd5b600080fd5b6000819050919050565b611a7d81611a6a565b8114611a8857600080fd5b50565b600081359050611a9a81611a74565b92915050565b600060208284031215611ab657611ab5611a60565b5b6000611ac484828501611a8b565b91505092915050565b60008115159050919050565b611ae281611acd565b82525050565b6000602082019050611afd6000830184611ad9565b92915050565b611b0c81611a6a565b82525050565b6000602082019050611b276000830184611b03565b92915050565b600081519050919050565b600082825260208201905092915050565b6000819050602082019050919050565b611b6281611a6a565b82525050565b600081519050919050565b600082825260208201905092915050565b60005b83811015611ba2578082015181840152602081019050611b87565b83811115611bb1576000848401525b50505050565b6000601f19601f8301169050919050565b6000611bd382611b68565b611bdd8185611b73565b9350611bed818560208601611b84565b611bf681611bb7565b840191505092915050565b611c0a81611acd565b82525050565b6000608083016000830151611c286000860182611b59565b5060208301518482036020860152611c408282611bc8565b9150506040830151611c556040860182611b59565b506060830151611c686060860182611c01565b508091505092915050565b6000611c7f8383611c10565b905092915050565b6000602082019050919050565b6000611c9f82611b2d565b611ca98185611b38565b935083602082028501611cbb85611b49565b8060005b85811015611cf75784840389528151611cd88582611c73565b9450611ce383611c87565b925060208a01995050600181019050611cbf565b50829750879550505050505092915050565b60006020820190508181036000830152611d238184611c94565b905092915050565b600082825260208201905092915050565b6000611d4782611b68565b611d518185611d2b565b9350611d61818560208601611b84565b611d6a81611bb7565b840191505092915050565b6000608082019050611d8a6000830187611b03565b8181036020830152611d9c8186611d3c565b9050611dab6040830185611b03565b611db86060830184611ad9565b95945050505050565b600080fd5b600080fd5b7f4e487b7100000000000000000000000000000000000000000000000000000000600052604160045260246000fd5b611e0382611bb7565b810181811067ffffffffffffffff82111715611e2257611e21611dcb565b5b80604052505050565b6000611e35611a56565b9050611e418282611dfa565b919050565b600067ffffffffffffffff821115611e6157611e60611dcb565b5b611e6a82611bb7565b9050602081019050919050565b82818337600083830152505050565b6000611e99611e9484611e46565b611e2b565b905082815260208101848484011115611eb557611eb4611dc6565b5b611ec0848285611e77565b509392505050565b600082601f830112611edd57611edc611dc1565b5b8135611eed848260208601611e86565b91505092915050565b600060208284031215611f0c57611f0b611a60565b5b600082013567ffffffffffffffff811115611f2a57611f29611a65565b5b611f3684828501611ec8565b91505092915050565b6000606082019050611f546000830186611b03565b8181036020830152611f668185611d3c565b9050611f756040830184611b03565b949350505050565b600073ffffffffffffffffffffffffffffffffffffffff82169050919050565b6000611fa882611f7d565b9050919050565b611fb881611f9d565b8114611fc357600080fd5b50565b600081359050611fd581611faf565b92915050565b600060208284031215611ff157611ff0611a60565b5b6000611fff84828501611fc6565b91505092915050565b600060a08201905061201d6000830188611ad9565b61202a6020830187611ad9565b6120376040830186611b03565b6120446060830185611b03565b6120516080830184611b03565b9695505050505050565b61206481611f9d565b82525050565b600060208201905061207f600083018461205b565b92915050565b7f54686520766f74696e6720686173206e6f742073746172746564207965742e00600082015250565b60006120bb601f83611d2b565b91506120c682612085565b602082019050919050565b600060208201905081810360008301526120ea816120ae565b9050919050565b7f496e76616c69642063616e646964617465204944000000000000000000000000600082015250565b6000612127601483611d2b565b9150612132826120f1565b602082019050919050565b600060208201905081810360008301526121568161211a565b9050919050565b7f5468657265206d757374206265206174206c656173742074776f2063616e646960008201527f646174657320666f72206120766f746520746f20626520636173742e00000000602082015250565b60006121b9603c83611d2b565b91506121c48261215d565b604082019050919050565b600060208201905081810360008301526121e8816121ac565b9050919050565b7f4e6f207469652d627265616b6572206973206163746976650000000000000000600082015250565b6000612225601883611d2b565b9150612230826121ef565b602082019050919050565b6000602082019050818103600083015261225481612218565b9050919050565b7f596f75206861766520616c726561647920766f74656420666f7220746965207360008201527f7465702e00000000000000000000000000000000000000000000000000000000602082015250565b60006122b7602483611d2b565b91506122c28261225b565b604082019050919050565b600060208201905081810360008301526122e6816122aa565b9050919050565b7f4e487b7100000000000000000000000000000000000000000000000000000000600052601160045260246000fd5b600061232782611a6a565b91507fffffffffffffffffffffffffffffffffffffffffffffffffffffffffffffffff8203612359576123586122ed565b5b600182019050919050565b7f496e76616c69642063616e64696461746520696e20746865207469652d62726560008201527f616b657220726f756e642e000000000000000000000000000000000000000000602082015250565b60006123c0602b83611d2b565b91506123cb82612364565b604082019050919050565b600060208201905081810360008301526123ef816123b3565b9050919050565b600060608201905061240b600083018661205b565b6124186020830185611b03565b6124256040830184611b03565b949350505050565b7f4f6e6c792061646d696e2063616e20706572666f726d2074686973206163746960008201527f6f6e000000000000000000000000000000000000000000000000000000000000602082015250565b6000612489602283611d2b565b91506124948261242d565b604082019050919050565b600060208201905081810360008301526124b88161247c565b9050919050565b7f54686520766f74696e672069732073746172746564206d616e75616c6c79206260008201527f79207468652061646d696e2e0000000000000000000000000000000000000000602082015250565b600061251b602c83611d2b565b9150612526826124bf565b604082019050919050565b6000602082019050818103600083015261254a8161250e565b9050919050565b7f4e487b7100000000000000000000000000000000000000000000000000000000600052602260045260246000fd5b6000600282049050600182168061259857607f821691505b6020821081036125ab576125aa612551565b5b50919050565b60006125bc82611a6a565b91506125c783611a6a565b9250828210156125da576125d96122ed565b5b828203905092915050565b7f4e487b7100000000000000000000000000000000000000000000000000000000600052603260045260246000fd5b7f566f74696e672068617320656e64656400000000000000000000000000000000600082015250565b600061264a601083611d2b565b915061265582612614565b602082019050919050565b600060208201905081810360008301526126798161263d565b9050919050565b7f43616e6469646174657320636f756e7420666f7220616e20656c656374696f6e60008201527f2063616e6e6f7420626520657175616c2077697468206d61782076616c756521602082015250565b60006126dc604083611d2b565b91506126e782612680565b604082019050919050565b6000602082019050818103600083015261270b816126cf565b9050919050565b7f43616e646964617465206e616d652063616e6e6f7420626520656d7074792e00600082015250565b6000612748601f83611d2b565b915061275382612712565b602082019050919050565b600060208201905081810360008301526127778161273b565b9050919050565b600081905092915050565b600061279482611b68565b61279e818561277e565b93506127ae818560208601611b84565b80840191505092915050565b60006127c68284612789565b915081905092915050565b7f43616e646964617465206e616d6520616c7265616479206578697374732e0000600082015250565b6000612807601e83611d2b565b9150612812826127d1565b602082019050919050565b60006020820190508181036000830152612836816127fa565b9050919050565b60006040820190506128526000830185611b03565b81810360208301526128648184611d3c565b90509392505050565b7f596f75206861766520616c726561647920766f74656400000000000000000000600082015250565b60006128a3601683611d2b565b91506128ae8261286d565b602082019050919050565b600060208201905081810360008301526128d281612896565b9050919050565b7f54696520427265616b657220766f74696e6720636f6e74696e7565732064756560008201527f20746f2074696d652e20636f6e74696e7565732064756520746f2074696d652e602082015250565b6000612935604083611d2b565b9150612940826128d9565b604082019050919050565b6000602082019050818103600083015261296481612928565b9050919050565b7f566f74696e6720636f6e74696e7565732064756520746f2074696d652e000000600082015250565b60006129a1601d83611d2b565b91506129ac8261296b565b602082019050919050565b600060208201905081810360008301526129d081612994565b9050919050565b7f4e6f2074696520746f20627265616b2100000000000000000000000000000000600082015250565b6000612a0d601083611d2b565b9150612a18826129d7565b602082019050919050565b60006020820190508181036000830152612a3c81612a00565b9050919050565b6000612a4e82611a6a565b9150612a5983611a6a565b9250827fffffffffffffffffffffffffffffffffffffffffffffffffffffffffffffffff03821115612a8e57612a8d6122ed565b5b828201905092915050565b7f5468657265206d757374206265206174206c656173742074776f2063616e646960008201527f646174657320666f72206120766f746520746f206765742077696e6e65722e00602082015250565b6000612af5603f83611d2b565b9150612b0082612a99565b604082019050919050565b60006020820190508181036000830152612b2481612ae8565b9050919050565b7f5468657265206d757374206265206174206c656173742074776f20766f74657360008201527f20746f206765742077696e6e65722e0000000000000000000000000000000000602082015250565b6000612b87602f83611d2b565b9150612b9282612b2b565b604082019050919050565b60006020820190508181036000830152612bb681612b7a565b905091905056fea264697066735822122095586c3041d38a4c7ad5129d39f1896745110fc9e7060c309f7debb894b9549464736f6c634300080d0033",
  "immutableReferences": {
    "24": [
      {
        "length": 32,
        "start": 6413
      }
    ],
    "26": [
      {
        "length": 32,
        "start": 2150
      },
      {
        "length": 32,
        "start": 3188
      },
      {
        "length": 32,
        "start": 4704
      },
      {
        "length": 32,
        "start": 5475
      }
    ]
  },
  "source": "// SPDX-License-Identifier: MIT\npragma solidity ^0.8.13;\n\n/**\n * @title Votier\n * @dev A blockchain-based voting system for selecting the best candidate.\n * Admins can add candidates, and users can vote for their preferred candidate.\n * Ensures transparency and immutability of the voting process.\n */\ncontract Votier {\n    // Structure to hold candidate details\n    struct Candidate {\n        uint id; // Unique ID of the candidate\n        string name; // Name of the candidate\n        uint voteCount; // Total votes received by the candidate\n        bool tied; // For second step\n    }\n\n    // Structure to hold voter details\n    struct Voter {\n        bool hasVoted; // Whether the voter has already voted\n        bool hasVotedForTie; // Whether the voter has already voted for second step\n        uint votedCandidateId; // ID of the candidate the voter voted for\n        uint votedTime;\n        uint tieVotedTime;\n    }\n\n    uint public immutable creationTime;\n    uint public immutable endVotingTime;\n\n    address public admin; // Address of the admin managing the voting system\n    mapping(uint => Candidate) public candidates; // Mapping of candidate ID to Candidate details\n    mapping(address => Voter) public voters; // Mapping of voter address to Voter details\n\n    uint public votesCount; // Total number of votes added\n    uint public candidatesCount; // Total number of candidates added\n    uint public tiedCandidatesCount; // Total number of tied candidates added\n    uint public maxCandidatesCount; // Max candidates can be joined to the election\n    mapping(string => bool) public candidateNames; // Mapping to track if a candidate name already exists\n    \n    // Secondary voting\n    uint private secondaryVotingStartTime;\n    uint private secondaryVotingEndTime;\n    bool public isTieBreakerActive;\n    bool private votingStatus;\n\n    // Event emitted when a new candidate is added\n    event CandidateAdded(uint id, string name);\n    // Event emitted when a vote is cast\n    event Voted(address voter, uint indexed candidateId, uint votedTime, uint newVoteCount);\n    // Debugging event\n    event AdminInitialized(address admin); \n    // Debugging event\n    event ContractDeployed(string message); \n    // Declare the exact winner\n    event WinnerDeclared(uint candidateId);\n\n    // Modifier to restrict access to admin-only functions\n    modifier onlyAdmin() {\n        require(msg.sender == admin, \"Only admin can perform this action\");\n        _;\n    }\n\n    modifier hasNotVoted() {\n        require(!voters[msg.sender].hasVoted, \"You have already voted\");\n        _;\n    }\n\n    modifier hasNotVotedForTie() {\n        require(!voters[msg.sender].hasVotedForTie, \"You have already voted for tie step.\");\n        _;\n    }\n\n    modifier votingOpen() {\n        require(block.timestamp < endVotingTime && isTieBreakerActive == false, \"Voting has ended\");\n        _;\n    }\n\n    modifier votingEnded(){\n        if(isTieBreakerActive){\n            require(block.timestamp > secondaryVotingEndTime && isTieBreakerActive == true, \"Tie Breaker voting continues due to time. continues due to time.\");\n        }\n        else {\n            require(block.timestamp > endVotingTime && isTieBreakerActive == false, \"Voting continues due to time.\");\n        }\n        _;\n    }\n\n    modifier votingTieBreakerOpen() {\n        require(block.timestamp < secondaryVotingEndTime && isTieBreakerActive == true, \"Tie Breaker voting has ended\");\n        _;\n    }\n\n    modifier tieBreakerActive() {\n        require(isTieBreakerActive, \"No tie-breaker is active\");\n        _;\n    }\n\n    modifier votingStarted() {\n        require(votingStatus == true, \"The voting has not started yet.\");\n        _;\n    }\n\n    modifier votingNotStarted() {\n        require(votingStatus == false, \"The voting is started manually by the admin.\");\n        _;\n    }\n\n    /**\n     * @dev Constructor sets the deploying address as the admin.\n     */\n    constructor(uint _maxCandidatesCount, uint _endVotingTime) {\n        uint normalizedEndVotingTime = _endVotingTime / 1000;\n        require(_maxCandidatesCount > 1 && _maxCandidatesCount < 50, \"Candidates must be at least two people and <50.\");\n        require(normalizedEndVotingTime > block.timestamp, \"End voting time must be in the future\");\n        require(normalizedEndVotingTime >= block.timestamp + 5 minutes, \"Voting must last at least 5 minutes\");\n\n        creationTime = block.timestamp;\n        endVotingTime = normalizedEndVotingTime;\n        maxCandidatesCount = _maxCandidatesCount;\n        admin = msg.sender;\n        votingStatus = false;\n        emit AdminInitialized(admin);\n        emit ContractDeployed(\"VotingSystem deployed successfully!\");\n    }\n\n    /**\n    * @dev to start voting.\n    */\n    function startVoting() public onlyAdmin votingNotStarted {\n        votingStatus = true;\n    }\n\n    /**\n    * @dev to end voting.\n    */\n    function endVoting() public onlyAdmin votingStarted {\n        votingStatus = false;\n    }\n\n    /**\n     * @dev Function to get all candidates (iterate using candidatesCount)\n     * @return The candidates.\n     */\n    function getAllCandidates() public view returns (Candidate[] memory) {\n        Candidate[] memory allCandidates = new Candidate[](candidatesCount);\n        \n        for (uint i = 1; i <= candidatesCount; i++) {\n            allCandidates[i - 1] = candidates[i];\n        }\n        \n        return allCandidates;\n    }\n\n\n    /**\n     * @dev Adds a new candidate to the voting system.\n     * @param _name The name of the candidate to be added.\n     */\n    function addCandidate(string memory _name) public onlyAdmin votingOpen votingNotStarted{\n        require(maxCandidatesCount > candidatesCount, \"Candidates count for an election cannot be equal with max value!\");\n        require(bytes(_name).length > 0, \"Candidate name cannot be empty.\");\n        require(!candidateNames[_name], \"Candidate name already exists.\");\n        candidatesCount++;\n        candidates[candidatesCount] = Candidate(candidatesCount, _name, 0, false);\n        candidateNames[_name] = true; // Mark the name as used\n        emit CandidateAdded(candidatesCount, _name);\n    }\n    \n    /**\n     * @dev Allows a user to vote for a candidate.\n     * @param _candidateId The ID of the candidate to vote for.\n     */\n    function vote(uint _candidateId) public votingStarted {\n        require(_candidateId > 0 && _candidateId <= candidatesCount, \"Invalid candidate ID\");\n        require(candidatesCount > 1, \"There must be at least two candidates for a vote to be cast.\");\n        // If tie-breaker is active\n        if (isTieBreakerActive) {\n            voteInTieBreaker(_candidateId);\n        } else {\n            voteInFirst(_candidateId);\n        }\n    }\n\n    /**\n     * @dev Allows a user to vote for a candidate.\n     * @param _candidateId The ID of the candidate to vote for.\n     */\n    function voteInFirst(uint _candidateId) public hasNotVoted {\n        voters[msg.sender] = Voter(true, false, _candidateId, block.timestamp, 0);\n        candidates[_candidateId].voteCount++;\n        votesCount++;\n\n        emit Voted(msg.sender, _candidateId, block.timestamp, candidates[_candidateId].voteCount);\n    }\n\n    /**\n     * @dev Allows a user to vote in the tie-breaker round.\n     * @param _candidateId The ID of the candidate to vote for in the tie-breaker round.\n     */\n    function voteInTieBreaker(uint _candidateId) public tieBreakerActive hasNotVotedForTie {\n        bool isTiedCandidate = false;\n        \n        // Check if the candidate is in the list of tied candidates\n        for (uint i = 1; i <= candidatesCount; i++) {\n            if (candidates[i].id == _candidateId && candidates[i].tied == true)  {\n                isTiedCandidate = true;\n                break;\n            }\n        }\n\n        require(isTiedCandidate, \"Invalid candidate in the tie-breaker round.\");\n\n        if (voters[msg.sender].votedTime == 0){\n            voters[msg.sender] = Voter(false, true, _candidateId, 0, block.timestamp);\n        }\n        else {\n            voters[msg.sender].hasVotedForTie = true;\n        }\n\n        candidates[_candidateId].voteCount++;\n        votesCount++;\n\n        emit Voted(msg.sender, _candidateId, block.timestamp, candidates[_candidateId].voteCount);\n    }\n\n   /**\n     * @dev Starts the tie-breaker round if there are candidates with equal votes.\n     */\n    function startTieBreaker() public onlyAdmin votingEnded {\n        uint maxVotes = 0;\n\n        // First, determine the maximum number of votes any candidate has\n        for (uint i = 1; i <= candidatesCount; i++) {\n            if (candidates[i].voteCount > maxVotes) {\n                maxVotes = candidates[i].voteCount;\n            }\n        }\n\n        for (uint i = 1; i <= candidatesCount; i++) {\n            if (candidates[i].voteCount == maxVotes) {\n                candidates[i].tied = true;\n                tiedCandidatesCount++;\n            }\n        }\n\n        // If there are more than one candidate tied, initiate the tie-breaking round\n        require(tiedCandidatesCount > 1, \"No tie to break!\");\n\n        // Set flag for tie-breaker and define time for the secondary round\n        isTieBreakerActive = true;\n        secondaryVotingStartTime = block.timestamp;\n        secondaryVotingEndTime = block.timestamp + 1 hours;  // 1 hour for tie-breaker voting duration\n    }\n\n    /**\n     * @dev Declares the winner after either the regular or tie-breaker voting round.\n     */\n    function getWinner() public onlyAdmin votingEnded returns (uint winnerId, string memory winnerName, uint highestVotes) {\n        require(candidatesCount > 1, \"There must be at least two candidates for a vote to get winner.\");\n        require(votesCount > 1, \"There must be at least two votes to get winner.\");\n\n        uint highestVoteCount = 0;\n        uint winnerCandidateId = 0;\n\n        for (uint i = 1; i <= candidatesCount; i++) {\n            if (candidates[i].voteCount > highestVoteCount) {\n                highestVoteCount = candidates[i].voteCount;\n                winnerCandidateId = i;\n            }\n        }\n\n        // Declare the winner\n        emit WinnerDeclared(winnerCandidateId);\n\n        winnerId = winnerCandidateId;\n        winnerName = candidates[winnerCandidateId].name;\n        highestVotes = highestVoteCount;\n\n        return (winnerId, winnerName, highestVotes);\n\n        // Reset tie-breaker state\n        isTieBreakerActive = false;\n        votingStatus = false;\n    }\n}\n",
  "sourcePath": "/home/chev/Documents/projects/ofcskn/Votier/smart-contracts/contracts/Votier.sol",
  "compiler": {
    "name": "solc",
    "version": "0.8.13+commit.abaa5c0e.Emscripten.clang"
  },
  "schemaVersion": "3.4.16",
  "updatedAt": "2024-12-28T02:19:10.189Z",
  "networkType": "ethereum",
  "devdoc": {
    "details": "A blockchain-based voting system for selecting the best candidate. Admins can add candidates, and users can vote for their preferred candidate. Ensures transparency and immutability of the voting process.",
    "kind": "dev",
    "methods": {
      "addCandidate(string)": {
        "details": "Adds a new candidate to the voting system.",
        "params": {
          "_name": "The name of the candidate to be added."
        }
      },
      "constructor": {
        "details": "Constructor sets the deploying address as the admin."
      },
      "endVoting()": {
        "details": "to end voting."
      },
      "getAllCandidates()": {
        "details": "Function to get all candidates (iterate using candidatesCount)",
        "returns": {
          "_0": "The candidates."
        }
      },
      "getWinner()": {
        "details": "Declares the winner after either the regular or tie-breaker voting round."
      },
      "startTieBreaker()": {
        "details": "Starts the tie-breaker round if there are candidates with equal votes."
      },
      "startVoting()": {
        "details": "to start voting."
      },
      "vote(uint256)": {
        "details": "Allows a user to vote for a candidate.",
        "params": {
          "_candidateId": "The ID of the candidate to vote for."
        }
      },
      "voteInFirst(uint256)": {
        "details": "Allows a user to vote for a candidate.",
        "params": {
          "_candidateId": "The ID of the candidate to vote for."
        }
      },
      "voteInTieBreaker(uint256)": {
        "details": "Allows a user to vote in the tie-breaker round.",
        "params": {
          "_candidateId": "The ID of the candidate to vote for in the tie-breaker round."
        }
      }
    },
    "title": "Votier",
    "version": 1
  },
  "userdoc": {
    "kind": "user",
    "methods": {},
    "version": 1
  }
}