{
  "contractName": "Votier",
  "abi": [
    {
      "inputs": [
        {
          "internalType": "uint256",
          "name": "_maxCandidatesCount",
          "type": "uint256"
        },
        {
          "internalType": "uint256",
          "name": "_endVotingTime",
          "type": "uint256"
        }
      ],
      "stateMutability": "nonpayable",
      "type": "constructor"
    },
    {
      "anonymous": false,
      "inputs": [
        {
          "indexed": false,
          "internalType": "address",
          "name": "admin",
          "type": "address"
        }
      ],
      "name": "AdminInitialized",
      "type": "event"
    },
    {
      "anonymous": false,
      "inputs": [
        {
          "indexed": false,
          "internalType": "uint256",
          "name": "id",
          "type": "uint256"
        },
        {
          "indexed": false,
          "internalType": "string",
          "name": "name",
          "type": "string"
        }
      ],
      "name": "CandidateAdded",
      "type": "event"
    },
    {
      "anonymous": false,
      "inputs": [
        {
          "indexed": false,
          "internalType": "string",
          "name": "message",
          "type": "string"
        }
      ],
      "name": "ContractDeployed",
      "type": "event"
    },
    {
      "anonymous": false,
      "inputs": [
        {
          "indexed": false,
          "internalType": "address",
          "name": "voter",
          "type": "address"
        },
        {
          "indexed": true,
          "internalType": "uint256",
          "name": "candidateId",
          "type": "uint256"
        },
        {
          "indexed": false,
          "internalType": "uint256",
          "name": "votedTime",
          "type": "uint256"
        },
        {
          "indexed": false,
          "internalType": "uint256",
          "name": "newVoteCount",
          "type": "uint256"
        }
      ],
      "name": "Voted",
      "type": "event"
    },
    {
      "inputs": [],
      "name": "admin",
      "outputs": [
        {
          "internalType": "address",
          "name": "",
          "type": "address"
        }
      ],
      "stateMutability": "view",
      "type": "function",
      "constant": true
    },
    {
      "inputs": [
        {
          "internalType": "string",
          "name": "",
          "type": "string"
        }
      ],
      "name": "candidateNames",
      "outputs": [
        {
          "internalType": "bool",
          "name": "",
          "type": "bool"
        }
      ],
      "stateMutability": "view",
      "type": "function",
      "constant": true
    },
    {
      "inputs": [
        {
          "internalType": "uint256",
          "name": "",
          "type": "uint256"
        }
      ],
      "name": "candidates",
      "outputs": [
        {
          "internalType": "uint256",
          "name": "id",
          "type": "uint256"
        },
        {
          "internalType": "string",
          "name": "name",
          "type": "string"
        },
        {
          "internalType": "uint256",
          "name": "voteCount",
          "type": "uint256"
        }
      ],
      "stateMutability": "view",
      "type": "function",
      "constant": true
    },
    {
      "inputs": [],
      "name": "candidatesCount",
      "outputs": [
        {
          "internalType": "uint256",
          "name": "",
          "type": "uint256"
        }
      ],
      "stateMutability": "view",
      "type": "function",
      "constant": true
    },
    {
      "inputs": [],
      "name": "creationTime",
      "outputs": [
        {
          "internalType": "uint256",
          "name": "",
          "type": "uint256"
        }
      ],
      "stateMutability": "view",
      "type": "function",
      "constant": true
    },
    {
      "inputs": [],
      "name": "endVotingTime",
      "outputs": [
        {
          "internalType": "uint256",
          "name": "",
          "type": "uint256"
        }
      ],
      "stateMutability": "view",
      "type": "function",
      "constant": true
    },
    {
      "inputs": [],
      "name": "maxCandidatesCount",
      "outputs": [
        {
          "internalType": "uint256",
          "name": "",
          "type": "uint256"
        }
      ],
      "stateMutability": "view",
      "type": "function",
      "constant": true
    },
    {
      "inputs": [
        {
          "internalType": "address",
          "name": "",
          "type": "address"
        }
      ],
      "name": "voters",
      "outputs": [
        {
          "internalType": "bool",
          "name": "hasVoted",
          "type": "bool"
        },
        {
          "internalType": "uint256",
          "name": "votedCandidateId",
          "type": "uint256"
        },
        {
          "internalType": "uint256",
          "name": "votedTime",
          "type": "uint256"
        }
      ],
      "stateMutability": "view",
      "type": "function",
      "constant": true
    },
    {
      "inputs": [],
      "name": "votesCount",
      "outputs": [
        {
          "internalType": "uint256",
          "name": "",
          "type": "uint256"
        }
      ],
      "stateMutability": "view",
      "type": "function",
      "constant": true
    },
    {
      "inputs": [
        {
          "internalType": "string",
          "name": "_name",
          "type": "string"
        }
      ],
      "name": "addCandidate",
      "outputs": [],
      "stateMutability": "nonpayable",
      "type": "function"
    },
    {
      "inputs": [
        {
          "internalType": "uint256",
          "name": "_candidateId",
          "type": "uint256"
        }
      ],
      "name": "vote",
      "outputs": [],
      "stateMutability": "nonpayable",
      "type": "function"
    },
    {
      "inputs": [],
      "name": "getAllCandidates",
      "outputs": [
        {
          "components": [
            {
              "internalType": "uint256",
              "name": "id",
              "type": "uint256"
            },
            {
              "internalType": "string",
              "name": "name",
              "type": "string"
            },
            {
              "internalType": "uint256",
              "name": "voteCount",
              "type": "uint256"
            }
          ],
          "internalType": "struct Votier.Candidate[]",
          "name": "",
          "type": "tuple[]"
        }
      ],
      "stateMutability": "view",
      "type": "function",
      "constant": true
    },
    {
      "inputs": [],
      "name": "getWinner",
      "outputs": [
        {
          "internalType": "uint256",
          "name": "winnerId",
          "type": "uint256"
        },
        {
          "internalType": "string",
          "name": "winnerName",
          "type": "string"
        },
        {
          "internalType": "uint256",
          "name": "highestVotes",
          "type": "uint256"
        }
      ],
      "stateMutability": "view",
      "type": "function",
      "constant": true
    }
  ],
  "bytecode": "0x60c06040523480156200001157600080fd5b506040516200223b3803806200223b833981810160405281019062000037919062000268565b60006103e8826200004991906200030d565b90506001831180156200005c5750603283105b6200009e576040517f08c379a00000000000000000000000000000000000000000000000000000000081526004016200009590620003cc565b60405180910390fd5b428111620000e3576040517f08c379a0000000000000000000000000000000000000000000000000000000008152600401620000da9062000464565b60405180910390fd5b61012c42620000f3919062000486565b81101562000138576040517f08c379a00000000000000000000000000000000000000000000000000000000081526004016200012f9062000559565b60405180910390fd5b42608081815250508060a0818152505082600581905550336000806101000a81548173ffffffffffffffffffffffffffffffffffffffff021916908373ffffffffffffffffffffffffffffffffffffffff1602179055507f5241ea49209ad1d2ebe33c2a6d1bc23e7f01b91278237320a96f9b44da5d471260008054906101000a900473ffffffffffffffffffffffffffffffffffffffff16604051620001e09190620005c0565b60405180910390a17f0d0ebe685f2c334e83847eb5e89a8d3d8919558c63ef37cf7fc3e7b86dd88b6d604051620002179062000653565b60405180910390a150505062000675565b600080fd5b6000819050919050565b62000242816200022d565b81146200024e57600080fd5b50565b600081519050620002628162000237565b92915050565b6000806040838503121562000282576200028162000228565b5b6000620002928582860162000251565b9250506020620002a58582860162000251565b9150509250929050565b7f4e487b7100000000000000000000000000000000000000000000000000000000600052601260045260246000fd5b7f4e487b7100000000000000000000000000000000000000000000000000000000600052601160045260246000fd5b60006200031a826200022d565b915062000327836200022d565b9250826200033a5762000339620002af565b5b828204905092915050565b600082825260208201905092915050565b7f43616e64696461746573206d757374206265206174206c656173742074776f2060008201527f70656f706c6520616e64203c35302e0000000000000000000000000000000000602082015250565b6000620003b4602f8362000345565b9150620003c18262000356565b604082019050919050565b60006020820190508181036000830152620003e781620003a5565b9050919050565b7f456e6420766f74696e672074696d65206d75737420626520696e20746865206660008201527f7574757265000000000000000000000000000000000000000000000000000000602082015250565b60006200044c60258362000345565b91506200045982620003ee565b604082019050919050565b600060208201905081810360008301526200047f816200043d565b9050919050565b600062000493826200022d565b9150620004a0836200022d565b9250827fffffffffffffffffffffffffffffffffffffffffffffffffffffffffffffffff03821115620004d857620004d7620002de565b5b828201905092915050565b7f566f74696e67206d757374206c617374206174206c656173742035206d696e7560008201527f7465730000000000000000000000000000000000000000000000000000000000602082015250565b60006200054160238362000345565b91506200054e82620004e3565b604082019050919050565b60006020820190508181036000830152620005748162000532565b9050919050565b600073ffffffffffffffffffffffffffffffffffffffff82169050919050565b6000620005a8826200057b565b9050919050565b620005ba816200059b565b82525050565b6000602082019050620005d76000830184620005af565b92915050565b7f566f74696e6753797374656d206465706c6f796564207375636365737366756c60008201527f6c79210000000000000000000000000000000000000000000000000000000000602082015250565b60006200063b60238362000345565b91506200064882620005dd565b604082019050919050565b600060208201905081810360008301526200066e816200062c565b9050919050565b60805160a051611b8b620006b06000396000818161029401528181610554015281816108330152610a9101526000610cc40152611b8b6000f3fe608060405234801561001057600080fd5b50600436106100cf5760003560e01c806378b0f9491161008c578063a3ec138d11610066578063a3ec138d146101f4578063d8270dce14610226578063dea3381514610244578063f851a44014610274576100cf565b806378b0f949146101985780638778b27d146101b65780638e7ea5b2146101d4576100cf565b80630121b93f146100d45780631961847b146100f05780632d35a8a21461010e5780632e6997fe1461012c5780633477ee2e1461014a578063462e91ec1461017c575b600080fd5b6100ee60048036038101906100e99190610e4e565b610292565b005b6100f8610552565b6040516101059190610e8a565b60405180910390f35b610116610576565b6040516101239190610e8a565b60405180910390f35b61013461057c565b604051610141919061105f565b60405180910390f35b610164600480360381019061015f9190610e4e565b6106f1565b604051610173939291906110cb565b60405180910390f35b6101966004803603810190610191919061123e565b6107a3565b005b6101a0610a7d565b6040516101ad9190610e8a565b60405180910390f35b6101be610a83565b6040516101cb9190610e8a565b60405180910390f35b6101dc610a89565b6040516101eb939291906110cb565b60405180910390f35b61020e600480360381019061020991906112e5565b610c8b565b60405161021d9392919061132d565b60405180910390f35b61022e610cc2565b60405161023b9190610e8a565b60405180910390f35b61025e6004803603810190610259919061123e565b610ce6565b60405161026b9190611364565b60405180910390f35b61027c610d1c565b604051610289919061138e565b60405180910390f35b7f000000000000000000000000000000000000000000000000000000000000000042106102f4576040517f08c379a00000000000000000000000000000000000000000000000000000000081526004016102eb906113f5565b60405180910390fd5b600260003373ffffffffffffffffffffffffffffffffffffffff1673ffffffffffffffffffffffffffffffffffffffff16815260200190815260200160002060000160009054906101000a900460ff1615610384576040517f08c379a000000000000000000000000000000000000000000000000000000000815260040161037b90611461565b60405180910390fd5b60008111801561039657506004548111155b6103d5576040517f08c379a00000000000000000000000000000000000000000000000000000000081526004016103cc906114cd565b60405180910390fd5b60016004541161041a576040517f08c379a00000000000000000000000000000000000000000000000000000000081526004016104119061155f565b60405180910390fd5b604051806060016040528060011515815260200182815260200142815250600260003373ffffffffffffffffffffffffffffffffffffffff1673ffffffffffffffffffffffffffffffffffffffff16815260200190815260200160002060008201518160000160006101000a81548160ff02191690831515021790555060208201518160010155604082015181600201559050506001600082815260200190815260200160002060020160008154809291906104d5906115ae565b9190505550600360008154809291906104ed906115ae565b9190505550807fc32b42768a47a585121e9b8d7a2ab9d3f34c326a192dee11ee1732e3d18313f3334260018060008781526020019081526020016000206002015461053891906115f6565b6040516105479392919061164c565b60405180910390a250565b7f000000000000000000000000000000000000000000000000000000000000000081565b60045481565b6060600060045467ffffffffffffffff81111561059c5761059b611113565b5b6040519080825280602002602001820160405280156105d557816020015b6105c2610d40565b8152602001906001900390816105ba5790505b5090506000600190505b60045481116106e9576001600082815260200190815260200160002060405180606001604052908160008201548152602001600182018054610620906116b2565b80601f016020809104026020016040519081016040528092919081815260200182805461064c906116b2565b80156106995780601f1061066e57610100808354040283529160200191610699565b820191906000526020600020905b81548152906001019060200180831161067c57829003601f168201915b50505050508152602001600282015481525050826001836106ba91906116e3565b815181106106cb576106ca611717565b5b602002602001018190525080806106e1906115ae565b9150506105df565b508091505090565b600160205280600052604060002060009150905080600001549080600101805461071a906116b2565b80601f0160208091040260200160405190810160405280929190818152602001828054610746906116b2565b80156107935780601f1061076857610100808354040283529160200191610793565b820191906000526020600020905b81548152906001019060200180831161077657829003601f168201915b5050505050908060020154905083565b60008054906101000a900473ffffffffffffffffffffffffffffffffffffffff1673ffffffffffffffffffffffffffffffffffffffff163373ffffffffffffffffffffffffffffffffffffffff1614610831576040517f08c379a0000000000000000000000000000000000000000000000000000000008152600401610828906117b8565b60405180910390fd5b7f00000000000000000000000000000000000000000000000000000000000000004210610893576040517f08c379a000000000000000000000000000000000000000000000000000000000815260040161088a906113f5565b60405180910390fd5b600454600554116108d9576040517f08c379a00000000000000000000000000000000000000000000000000000000081526004016108d09061184a565b60405180910390fd5b600081511161091d576040517f08c379a0000000000000000000000000000000000000000000000000000000008152600401610914906118b6565b60405180910390fd5b60068160405161092d9190611912565b908152602001604051809103902060009054906101000a900460ff1615610989576040517f08c379a000000000000000000000000000000000000000000000000000000000815260040161098090611975565b60405180910390fd5b6004600081548092919061099c906115ae565b91905055506040518060600160405280600454815260200182815260200160008152506001600060045481526020019081526020016000206000820151816000015560208201518160010190805190602001906109fa929190610d61565b50604082015181600201559050506001600682604051610a1a9190611912565b908152602001604051809103902060006101000a81548160ff0219169083151502179055507fe83b2a43e7e82d975c8a0a6d2f045153c869e111136a34d1889ab7b598e396a360045482604051610a72929190611995565b60405180910390a150565b60055481565b60035481565b6000606060007f00000000000000000000000000000000000000000000000000000000000000004211610af1576040517f08c379a0000000000000000000000000000000000000000000000000000000008152600401610ae890611a11565b60405180910390fd5b600160045411610b36576040517f08c379a0000000000000000000000000000000000000000000000000000000008152600401610b2d90611aa3565b60405180910390fd5b600160035411610b7b576040517f08c379a0000000000000000000000000000000000000000000000000000000008152600401610b7290611b35565b60405180910390fd5b6000806000600190505b6004548111610bdc578260016000838152602001908152602001600020600201541115610bc957600160008281526020019081526020016000206002015492508091505b8080610bd4906115ae565b915050610b85565b50809450600160008281526020019081526020016000206001018054610c01906116b2565b80601f0160208091040260200160405190810160405280929190818152602001828054610c2d906116b2565b8015610c7a5780601f10610c4f57610100808354040283529160200191610c7a565b820191906000526020600020905b815481529060010190602001808311610c5d57829003601f168201915b505050505093508192505050909192565b60026020528060005260406000206000915090508060000160009054906101000a900460ff16908060010154908060020154905083565b7f000000000000000000000000000000000000000000000000000000000000000081565b6006818051602081018201805184825260208301602085012081835280955050505050506000915054906101000a900460ff1681565b60008054906101000a900473ffffffffffffffffffffffffffffffffffffffff1681565b60405180606001604052806000815260200160608152602001600081525090565b828054610d6d906116b2565b90600052602060002090601f016020900481019282610d8f5760008555610dd6565b82601f10610da857805160ff1916838001178555610dd6565b82800160010185558215610dd6579182015b82811115610dd5578251825591602001919060010190610dba565b5b509050610de39190610de7565b5090565b5b80821115610e00576000816000905550600101610de8565b5090565b6000604051905090565b600080fd5b600080fd5b6000819050919050565b610e2b81610e18565b8114610e3657600080fd5b50565b600081359050610e4881610e22565b92915050565b600060208284031215610e6457610e63610e0e565b5b6000610e7284828501610e39565b91505092915050565b610e8481610e18565b82525050565b6000602082019050610e9f6000830184610e7b565b92915050565b600081519050919050565b600082825260208201905092915050565b6000819050602082019050919050565b610eda81610e18565b82525050565b600081519050919050565b600082825260208201905092915050565b60005b83811015610f1a578082015181840152602081019050610eff565b83811115610f29576000848401525b50505050565b6000601f19601f8301169050919050565b6000610f4b82610ee0565b610f558185610eeb565b9350610f65818560208601610efc565b610f6e81610f2f565b840191505092915050565b6000606083016000830151610f916000860182610ed1565b5060208301518482036020860152610fa98282610f40565b9150506040830151610fbe6040860182610ed1565b508091505092915050565b6000610fd58383610f79565b905092915050565b6000602082019050919050565b6000610ff582610ea5565b610fff8185610eb0565b93508360208202850161101185610ec1565b8060005b8581101561104d578484038952815161102e8582610fc9565b945061103983610fdd565b925060208a01995050600181019050611015565b50829750879550505050505092915050565b600060208201905081810360008301526110798184610fea565b905092915050565b600082825260208201905092915050565b600061109d82610ee0565b6110a78185611081565b93506110b7818560208601610efc565b6110c081610f2f565b840191505092915050565b60006060820190506110e06000830186610e7b565b81810360208301526110f28185611092565b90506111016040830184610e7b565b949350505050565b600080fd5b600080fd5b7f4e487b7100000000000000000000000000000000000000000000000000000000600052604160045260246000fd5b61114b82610f2f565b810181811067ffffffffffffffff8211171561116a57611169611113565b5b80604052505050565b600061117d610e04565b90506111898282611142565b919050565b600067ffffffffffffffff8211156111a9576111a8611113565b5b6111b282610f2f565b9050602081019050919050565b82818337600083830152505050565b60006111e16111dc8461118e565b611173565b9050828152602081018484840111156111fd576111fc61110e565b5b6112088482856111bf565b509392505050565b600082601f83011261122557611224611109565b5b81356112358482602086016111ce565b91505092915050565b60006020828403121561125457611253610e0e565b5b600082013567ffffffffffffffff81111561127257611271610e13565b5b61127e84828501611210565b91505092915050565b600073ffffffffffffffffffffffffffffffffffffffff82169050919050565b60006112b282611287565b9050919050565b6112c2816112a7565b81146112cd57600080fd5b50565b6000813590506112df816112b9565b92915050565b6000602082840312156112fb576112fa610e0e565b5b6000611309848285016112d0565b91505092915050565b60008115159050919050565b61132781611312565b82525050565b6000606082019050611342600083018661131e565b61134f6020830185610e7b565b61135c6040830184610e7b565b949350505050565b6000602082019050611379600083018461131e565b92915050565b611388816112a7565b82525050565b60006020820190506113a3600083018461137f565b92915050565b7f566f74696e6720636c6f7365642064756520746f20646174652e000000000000600082015250565b60006113df601a83611081565b91506113ea826113a9565b602082019050919050565b6000602082019050818103600083015261140e816113d2565b9050919050565b7f596f75206861766520616c726561647920766f74656400000000000000000000600082015250565b600061144b601683611081565b915061145682611415565b602082019050919050565b6000602082019050818103600083015261147a8161143e565b9050919050565b7f496e76616c69642063616e646964617465204944000000000000000000000000600082015250565b60006114b7601483611081565b91506114c282611481565b602082019050919050565b600060208201905081810360008301526114e6816114aa565b9050919050565b7f5468657265206d757374206265206174206c656173742074776f2063616e646960008201527f646174657320666f72206120766f746520746f20626520636173742e00000000602082015250565b6000611549603c83611081565b9150611554826114ed565b604082019050919050565b600060208201905081810360008301526115788161153c565b9050919050565b7f4e487b7100000000000000000000000000000000000000000000000000000000600052601160045260246000fd5b60006115b982610e18565b91507fffffffffffffffffffffffffffffffffffffffffffffffffffffffffffffffff82036115eb576115ea61157f565b5b600182019050919050565b600061160182610e18565b915061160c83610e18565b9250827fffffffffffffffffffffffffffffffffffffffffffffffffffffffffffffffff038211156116415761164061157f565b5b828201905092915050565b6000606082019050611661600083018661137f565b61166e6020830185610e7b565b61167b6040830184610e7b565b949350505050565b7f4e487b7100000000000000000000000000000000000000000000000000000000600052602260045260246000fd5b600060028204905060018216806116ca57607f821691505b6020821081036116dd576116dc611683565b5b50919050565b60006116ee82610e18565b91506116f983610e18565b92508282101561170c5761170b61157f565b5b828203905092915050565b7f4e487b7100000000000000000000000000000000000000000000000000000000600052603260045260246000fd5b7f4f6e6c792061646d696e2063616e20706572666f726d2074686973206163746960008201527f6f6e000000000000000000000000000000000000000000000000000000000000602082015250565b60006117a2602283611081565b91506117ad82611746565b604082019050919050565b600060208201905081810360008301526117d181611795565b9050919050565b7f43616e6469646174657320636f756e7420666f7220616e20656c656374696f6e60008201527f2063616e6e6f7420626520657175616c2077697468206d61782076616c756521602082015250565b6000611834604083611081565b915061183f826117d8565b604082019050919050565b6000602082019050818103600083015261186381611827565b9050919050565b7f43616e646964617465206e616d652063616e6e6f7420626520656d7074792e00600082015250565b60006118a0601f83611081565b91506118ab8261186a565b602082019050919050565b600060208201905081810360008301526118cf81611893565b9050919050565b600081905092915050565b60006118ec82610ee0565b6118f681856118d6565b9350611906818560208601610efc565b80840191505092915050565b600061191e82846118e1565b915081905092915050565b7f43616e646964617465206e616d6520616c7265616479206578697374732e0000600082015250565b600061195f601e83611081565b915061196a82611929565b602082019050919050565b6000602082019050818103600083015261198e81611952565b9050919050565b60006040820190506119aa6000830185610e7b565b81810360208301526119bc8184611092565b90509392505050565b7f566f74696e6720636f6e74696e7565732064756520746f2074696d652e000000600082015250565b60006119fb601d83611081565b9150611a06826119c5565b602082019050919050565b60006020820190508181036000830152611a2a816119ee565b9050919050565b7f5468657265206d757374206265206174206c656173742074776f2063616e646960008201527f646174657320666f72206120766f746520746f206765742077696e6e65722e00602082015250565b6000611a8d603f83611081565b9150611a9882611a31565b604082019050919050565b60006020820190508181036000830152611abc81611a80565b9050919050565b7f5468657265206d757374206265206174206c656173742074776f20766f74657360008201527f20746f206765742077696e6e65722e0000000000000000000000000000000000602082015250565b6000611b1f602f83611081565b9150611b2a82611ac3565b604082019050919050565b60006020820190508181036000830152611b4e81611b12565b905091905056fea2646970667358221220a9ef854884f801dba22dc60e16d261ef4345d61d3a04c50344257c7eda25cc6764736f6c634300080d0033",
  "immutableReferences": {
    "18": [
      {
        "length": 32,
        "start": 3268
      }
    ],
    "20": [
      {
        "length": 32,
        "start": 660
      },
      {
        "length": 32,
        "start": 1364
      },
      {
        "length": 32,
        "start": 2099
      },
      {
        "length": 32,
        "start": 2705
      }
    ]
  },
  "source": "// SPDX-License-Identifier: MIT\npragma solidity ^0.8.13;\n\n/**\n * @title Votier\n * @dev A blockchain-based voting system for selecting the best candidate.\n * Admins can add candidates, and users can vote for their preferred candidate.\n * Ensures transparency and immutability of the voting process.\n */\ncontract Votier {\n    // Structure to hold candidate details\n    struct Candidate {\n        uint id; // Unique ID of the candidate\n        string name; // Name of the candidate\n        uint voteCount; // Total votes received by the candidate\n    }\n\n    // Structure to hold voter details\n    struct Voter {\n        bool hasVoted; // Whether the voter has already voted\n        uint votedCandidateId; // ID of the candidate the voter voted for\n        uint votedTime;\n    }\n\n    uint public immutable creationTime;\n    uint public immutable endVotingTime;\n\n    address public admin; // Address of the admin managing the voting system\n    mapping(uint => Candidate) public candidates; // Mapping of candidate ID to Candidate details\n    mapping(address => Voter) public voters; // Mapping of voter address to Voter details\n    uint public votesCount; // Total number of votes added\n    uint public candidatesCount; // Total number of candidates added\n    uint public maxCandidatesCount; // Max candidates can be joined to the election\n    mapping(string => bool) public candidateNames; // Mapping to track if a candidate name already exists\n\n    // Event emitted when a new candidate is added\n    event CandidateAdded(uint id, string name);\n\n    // Event emitted when a vote is cast\n    event Voted(address voter, uint indexed candidateId, uint votedTime, uint newVoteCount);\n\n    event AdminInitialized(address admin); // Debugging event\n    event ContractDeployed(string message); // Debugging event\n\n    // Modifier to restrict access to admin-only functions\n    modifier onlyAdmin() {\n        require(msg.sender == admin, \"Only admin can perform this action\");\n        _;\n    }\n\n    /**\n     * @dev Constructor sets the deploying address as the admin.\n     */\n    constructor(uint _maxCandidatesCount, uint _endVotingTime) {\n        uint normalizedEndVotingTime = _endVotingTime / 1000;\n        require(_maxCandidatesCount > 1 && _maxCandidatesCount < 50, \"Candidates must be at least two people and <50.\");\n        require(normalizedEndVotingTime > block.timestamp, \"End voting time must be in the future\");\n        require(normalizedEndVotingTime >= block.timestamp + 5 minutes, \"Voting must last at least 5 minutes\");\n\n        creationTime = block.timestamp;\n        endVotingTime = normalizedEndVotingTime;\n        maxCandidatesCount = _maxCandidatesCount;\n        admin = msg.sender;\n        emit AdminInitialized(admin);\n        emit ContractDeployed(\"VotingSystem deployed successfully!\");\n    }\n\n    /**\n     * @dev Adds a new candidate to the voting system.\n     * @param _name The name of the candidate to be added.\n     */\n    function addCandidate(string memory _name) public onlyAdmin {\n        require(block.timestamp < endVotingTime, \"Voting closed due to date.\");\n        require(maxCandidatesCount > candidatesCount, \"Candidates count for an election cannot be equal with max value!\");\n        require(bytes(_name).length > 0, \"Candidate name cannot be empty.\");\n        require(!candidateNames[_name], \"Candidate name already exists.\");\n        candidatesCount++;\n        candidates[candidatesCount] = Candidate(candidatesCount, _name, 0);\n        candidateNames[_name] = true; // Mark the name as used\n        emit CandidateAdded(candidatesCount, _name);\n    }\n\n    /**\n     * @dev Allows a user to vote for a candidate.\n     * @param _candidateId The ID of the candidate to vote for.\n     */\n    function vote(uint _candidateId) public {\n        require(block.timestamp < endVotingTime, \"Voting closed due to date.\");\n        require(!voters[msg.sender].hasVoted, \"You have already voted\");\n        require(_candidateId > 0 && _candidateId <= candidatesCount, \"Invalid candidate ID\");\n        require(candidatesCount > 1, \"There must be at least two candidates for a vote to be cast.\");\n\n        voters[msg.sender] = Voter(true, _candidateId, block.timestamp);\n        candidates[_candidateId].voteCount++;\n        votesCount++;\n\n        emit Voted(msg.sender, _candidateId, block.timestamp, candidates[_candidateId].voteCount + 1);\n    }\n\n    // Function to get a candidate by ID (no need to manually define it)\n    // The getter is automatically available due to `public` keyword in the mapping\n\n    // Function to get all candidates (iterate using candidatesCount)\n    function getAllCandidates() public view returns (Candidate[] memory) {\n        Candidate[] memory allCandidates = new Candidate[](candidatesCount);\n        \n        for (uint i = 1; i <= candidatesCount; i++) {\n            allCandidates[i - 1] = candidates[i];\n        }\n        \n        return allCandidates;\n    }\n    /**\n     * @dev Determines the winner of the voting process.\n     * @return winnerId The ID of the winning candidate.\n     * @return winnerName The name of the winning candidate.\n     * @return highestVotes The highest number of votes received by a candidate.\n     */\n    function getWinner() public view returns (uint winnerId, string memory winnerName, uint highestVotes) {\n        require(block.timestamp > endVotingTime, \"Voting continues due to time.\");\n        require(candidatesCount > 1, \"There must be at least two candidates for a vote to get winner.\");\n        require(votesCount > 1, \"There must be at least two votes to get winner.\");\n\n        uint highestVoteCount = 0;\n        uint winningCandidateId = 0;\n\n        for (uint i = 1; i <= candidatesCount; i++) {\n            if (candidates[i].voteCount > highestVoteCount) {\n                highestVoteCount = candidates[i].voteCount;\n                winningCandidateId = i;\n            }\n        }\n\n        winnerId = winningCandidateId;\n        winnerName = candidates[winningCandidateId].name;\n        highestVotes = highestVoteCount;\n    }\n}\n",
  "sourcePath": "/home/chev/Documents/projects/ofcskn/Votier/smart-contracts/contracts/Votier.sol",
  "compiler": {
    "name": "solc",
    "version": "0.8.13+commit.abaa5c0e.Emscripten.clang"
  },
  "schemaVersion": "3.4.16",
  "updatedAt": "2024-12-27T22:11:26.411Z",
  "networkType": "ethereum",
  "devdoc": {
    "details": "A blockchain-based voting system for selecting the best candidate. Admins can add candidates, and users can vote for their preferred candidate. Ensures transparency and immutability of the voting process.",
    "kind": "dev",
    "methods": {
      "addCandidate(string)": {
        "details": "Adds a new candidate to the voting system.",
        "params": {
          "_name": "The name of the candidate to be added."
        }
      },
      "constructor": {
        "details": "Constructor sets the deploying address as the admin."
      },
      "getWinner()": {
        "details": "Determines the winner of the voting process.",
        "returns": {
          "highestVotes": "The highest number of votes received by a candidate.",
          "winnerId": "The ID of the winning candidate.",
          "winnerName": "The name of the winning candidate."
        }
      },
      "vote(uint256)": {
        "details": "Allows a user to vote for a candidate.",
        "params": {
          "_candidateId": "The ID of the candidate to vote for."
        }
      }
    },
    "title": "Votier",
    "version": 1
  },
  "userdoc": {
    "kind": "user",
    "methods": {},
    "version": 1
  }
}