{
  "contractName": "Votier",
  "abi": [
    {
      "inputs": [],
      "stateMutability": "nonpayable",
      "type": "constructor"
    },
    {
      "anonymous": false,
      "inputs": [
        {
          "indexed": false,
          "internalType": "address",
          "name": "admin",
          "type": "address"
        }
      ],
      "name": "AdminInitialized",
      "type": "event"
    },
    {
      "anonymous": false,
      "inputs": [
        {
          "indexed": false,
          "internalType": "uint256",
          "name": "id",
          "type": "uint256"
        },
        {
          "indexed": false,
          "internalType": "string",
          "name": "name",
          "type": "string"
        }
      ],
      "name": "CandidateAdded",
      "type": "event"
    },
    {
      "anonymous": false,
      "inputs": [
        {
          "indexed": false,
          "internalType": "string",
          "name": "message",
          "type": "string"
        }
      ],
      "name": "ContractDeployed",
      "type": "event"
    },
    {
      "anonymous": false,
      "inputs": [
        {
          "indexed": false,
          "internalType": "address",
          "name": "voter",
          "type": "address"
        },
        {
          "indexed": false,
          "internalType": "uint256",
          "name": "candidateId",
          "type": "uint256"
        }
      ],
      "name": "Voted",
      "type": "event"
    },
    {
      "inputs": [],
      "name": "admin",
      "outputs": [
        {
          "internalType": "address",
          "name": "",
          "type": "address"
        }
      ],
      "stateMutability": "view",
      "type": "function"
    },
    {
      "inputs": [
        {
          "internalType": "uint256",
          "name": "",
          "type": "uint256"
        }
      ],
      "name": "candidates",
      "outputs": [
        {
          "internalType": "uint256",
          "name": "id",
          "type": "uint256"
        },
        {
          "internalType": "string",
          "name": "name",
          "type": "string"
        },
        {
          "internalType": "uint256",
          "name": "voteCount",
          "type": "uint256"
        }
      ],
      "stateMutability": "view",
      "type": "function"
    },
    {
      "inputs": [],
      "name": "candidatesCount",
      "outputs": [
        {
          "internalType": "uint256",
          "name": "",
          "type": "uint256"
        }
      ],
      "stateMutability": "view",
      "type": "function"
    },
    {
      "inputs": [
        {
          "internalType": "address",
          "name": "",
          "type": "address"
        }
      ],
      "name": "voters",
      "outputs": [
        {
          "internalType": "bool",
          "name": "hasVoted",
          "type": "bool"
        },
        {
          "internalType": "uint256",
          "name": "votedCandidateId",
          "type": "uint256"
        }
      ],
      "stateMutability": "view",
      "type": "function"
    },
    {
      "inputs": [
        {
          "internalType": "string",
          "name": "_name",
          "type": "string"
        }
      ],
      "name": "addCandidate",
      "outputs": [],
      "stateMutability": "nonpayable",
      "type": "function"
    },
    {
      "inputs": [
        {
          "internalType": "uint256",
          "name": "_candidateId",
          "type": "uint256"
        }
      ],
      "name": "vote",
      "outputs": [],
      "stateMutability": "nonpayable",
      "type": "function"
    },
    {
      "inputs": [],
      "name": "getWinner",
      "outputs": [
        {
          "internalType": "uint256",
          "name": "winnerId",
          "type": "uint256"
        },
        {
          "internalType": "string",
          "name": "winnerName",
          "type": "string"
        },
        {
          "internalType": "uint256",
          "name": "highestVotes",
          "type": "uint256"
        }
      ],
      "stateMutability": "view",
      "type": "function"
    }
  ],
  "bytecode": "0x608060405234801562000010575f80fd5b50335f806101000a81548173ffffffffffffffffffffffffffffffffffffffff021916908373ffffffffffffffffffffffffffffffffffffffff1602179055507f5241ea49209ad1d2ebe33c2a6d1bc23e7f01b91278237320a96f9b44da5d47125f8054906101000a900473ffffffffffffffffffffffffffffffffffffffff16604051620000a0919062000128565b60405180910390a17f0d0ebe685f2c334e83847eb5e89a8d3d8919558c63ef37cf7fc3e7b86dd88b6d604051620000d790620001c7565b60405180910390a1620001e7565b5f73ffffffffffffffffffffffffffffffffffffffff82169050919050565b5f6200011082620000e5565b9050919050565b620001228162000104565b82525050565b5f6020820190506200013d5f83018462000117565b92915050565b5f82825260208201905092915050565b7f566f74696e6753797374656d206465706c6f796564207375636365737366756c5f8201527f6c79210000000000000000000000000000000000000000000000000000000000602082015250565b5f620001af60238362000143565b9150620001bc8262000153565b604082019050919050565b5f6020820190508181035f830152620001e081620001a1565b9050919050565b610f6580620001f55f395ff3fe608060405234801561000f575f80fd5b506004361061007b575f3560e01c8063462e91ec11610059578063462e91ec146100eb5780638e7ea5b214610107578063a3ec138d14610127578063f851a440146101585761007b565b80630121b93f1461007f5780632d35a8a21461009b5780633477ee2e146100b9575b5f80fd5b610099600480360381019061009491906106c5565b610176565b005b6100a3610336565b6040516100b091906106ff565b60405180910390f35b6100d360048036038101906100ce91906106c5565b61033c565b6040516100e2939291906107a2565b60405180910390f35b6101056004803603810190610100919061090a565b6103e8565b005b61010f610525565b60405161011e939291906107a2565b60405180910390f35b610141600480360381019061013c91906109ab565b610632565b60405161014f9291906109f0565b60405180910390f35b61016061065e565b60405161016d9190610a26565b60405180910390f35b60025f3373ffffffffffffffffffffffffffffffffffffffff1673ffffffffffffffffffffffffffffffffffffffff1681526020019081526020015f205f015f9054906101000a900460ff1615610202576040517f08c379a00000000000000000000000000000000000000000000000000000000081526004016101f990610a89565b60405180910390fd5b5f8111801561021357506003548111155b610252576040517f08c379a000000000000000000000000000000000000000000000000000000000815260040161024990610af1565b60405180910390fd5b60405180604001604052806001151581526020018281525060025f3373ffffffffffffffffffffffffffffffffffffffff1673ffffffffffffffffffffffffffffffffffffffff1681526020019081526020015f205f820151815f015f6101000a81548160ff0219169083151502179055506020820151816001015590505060015f8281526020019081526020015f206002015f8154809291906102f590610b3c565b91905055507f4d99b957a2bc29a30ebd96a7be8e68fe50a3c701db28a91436490b7d53870ca4338260405161032b929190610b83565b60405180910390a150565b60035481565b6001602052805f5260405f205f91509050805f01549080600101805461036190610bd7565b80601f016020809104026020016040519081016040528092919081815260200182805461038d90610bd7565b80156103d85780601f106103af576101008083540402835291602001916103d8565b820191905f5260205f20905b8154815290600101906020018083116103bb57829003601f168201915b5050505050908060020154905083565b5f8054906101000a900473ffffffffffffffffffffffffffffffffffffffff1673ffffffffffffffffffffffffffffffffffffffff163373ffffffffffffffffffffffffffffffffffffffff1614610475576040517f08c379a000000000000000000000000000000000000000000000000000000000815260040161046c90610c77565b60405180910390fd5b60035f81548092919061048790610b3c565b9190505550604051806060016040528060035481526020018281526020015f81525060015f60035481526020019081526020015f205f820151815f015560208201518160010190816104d99190610e32565b50604082015181600201559050507fe83b2a43e7e82d975c8a0a6d2f045153c869e111136a34d1889ab7b598e396a36003548260405161051a929190610f01565b60405180910390a150565b5f60605f805f90505f80600190505b6003548111610587578260015f8381526020019081526020015f206002015411156105745760015f8281526020019081526020015f206002015492508091505b808061057f90610b3c565b915050610534565b5080945060015f8281526020019081526020015f2060010180546105aa90610bd7565b80601f01602080910402602001604051908101604052809291908181526020018280546105d690610bd7565b80156106215780601f106105f857610100808354040283529160200191610621565b820191905f5260205f20905b81548152906001019060200180831161060457829003601f168201915b505050505093508192505050909192565b6002602052805f5260405f205f91509050805f015f9054906101000a900460ff16908060010154905082565b5f8054906101000a900473ffffffffffffffffffffffffffffffffffffffff1681565b5f604051905090565b5f80fd5b5f80fd5b5f819050919050565b6106a481610692565b81146106ae575f80fd5b50565b5f813590506106bf8161069b565b92915050565b5f602082840312156106da576106d961068a565b5b5f6106e7848285016106b1565b91505092915050565b6106f981610692565b82525050565b5f6020820190506107125f8301846106f0565b92915050565b5f81519050919050565b5f82825260208201905092915050565b5f5b8381101561074f578082015181840152602081019050610734565b5f8484015250505050565b5f601f19601f8301169050919050565b5f61077482610718565b61077e8185610722565b935061078e818560208601610732565b6107978161075a565b840191505092915050565b5f6060820190506107b55f8301866106f0565b81810360208301526107c7818561076a565b90506107d660408301846106f0565b949350505050565b5f80fd5b5f80fd5b7f4e487b71000000000000000000000000000000000000000000000000000000005f52604160045260245ffd5b61081c8261075a565b810181811067ffffffffffffffff8211171561083b5761083a6107e6565b5b80604052505050565b5f61084d610681565b90506108598282610813565b919050565b5f67ffffffffffffffff821115610878576108776107e6565b5b6108818261075a565b9050602081019050919050565b828183375f83830152505050565b5f6108ae6108a98461085e565b610844565b9050828152602081018484840111156108ca576108c96107e2565b5b6108d584828561088e565b509392505050565b5f82601f8301126108f1576108f06107de565b5b813561090184826020860161089c565b91505092915050565b5f6020828403121561091f5761091e61068a565b5b5f82013567ffffffffffffffff81111561093c5761093b61068e565b5b610948848285016108dd565b91505092915050565b5f73ffffffffffffffffffffffffffffffffffffffff82169050919050565b5f61097a82610951565b9050919050565b61098a81610970565b8114610994575f80fd5b50565b5f813590506109a581610981565b92915050565b5f602082840312156109c0576109bf61068a565b5b5f6109cd84828501610997565b91505092915050565b5f8115159050919050565b6109ea816109d6565b82525050565b5f604082019050610a035f8301856109e1565b610a1060208301846106f0565b9392505050565b610a2081610970565b82525050565b5f602082019050610a395f830184610a17565b92915050565b7f596f75206861766520616c726561647920766f746564000000000000000000005f82015250565b5f610a73601683610722565b9150610a7e82610a3f565b602082019050919050565b5f6020820190508181035f830152610aa081610a67565b9050919050565b7f496e76616c69642063616e6469646174652049440000000000000000000000005f82015250565b5f610adb601483610722565b9150610ae682610aa7565b602082019050919050565b5f6020820190508181035f830152610b0881610acf565b9050919050565b7f4e487b71000000000000000000000000000000000000000000000000000000005f52601160045260245ffd5b5f610b4682610692565b91507fffffffffffffffffffffffffffffffffffffffffffffffffffffffffffffffff8203610b7857610b77610b0f565b5b600182019050919050565b5f604082019050610b965f830185610a17565b610ba360208301846106f0565b9392505050565b7f4e487b71000000000000000000000000000000000000000000000000000000005f52602260045260245ffd5b5f6002820490506001821680610bee57607f821691505b602082108103610c0157610c00610baa565b5b50919050565b7f4f6e6c792061646d696e2063616e20706572666f726d207468697320616374695f8201527f6f6e000000000000000000000000000000000000000000000000000000000000602082015250565b5f610c61602283610722565b9150610c6c82610c07565b604082019050919050565b5f6020820190508181035f830152610c8e81610c55565b9050919050565b5f819050815f5260205f209050919050565b5f6020601f8301049050919050565b5f82821b905092915050565b5f60088302610cf17fffffffffffffffffffffffffffffffffffffffffffffffffffffffffffffffff82610cb6565b610cfb8683610cb6565b95508019841693508086168417925050509392505050565b5f819050919050565b5f610d36610d31610d2c84610692565b610d13565b610692565b9050919050565b5f819050919050565b610d4f83610d1c565b610d63610d5b82610d3d565b848454610cc2565b825550505050565b5f90565b610d77610d6b565b610d82818484610d46565b505050565b5b81811015610da557610d9a5f82610d6f565b600181019050610d88565b5050565b601f821115610dea57610dbb81610c95565b610dc484610ca7565b81016020851015610dd3578190505b610de7610ddf85610ca7565b830182610d87565b50505b505050565b5f82821c905092915050565b5f610e0a5f1984600802610def565b1980831691505092915050565b5f610e228383610dfb565b9150826002028217905092915050565b610e3b82610718565b67ffffffffffffffff811115610e5457610e536107e6565b5b610e5e8254610bd7565b610e69828285610da9565b5f60209050601f831160018114610e9a575f8415610e88578287015190505b610e928582610e17565b865550610ef9565b601f198416610ea886610c95565b5f5b82811015610ecf57848901518255600182019150602085019450602081019050610eaa565b86831015610eec5784890151610ee8601f891682610dfb565b8355505b6001600288020188555050505b505050505050565b5f604082019050610f145f8301856106f0565b8181036020830152610f26818461076a565b9050939250505056fea2646970667358221220b9586fdfd5ce51e629768fb7ce0ce1a019c8e1d1b52a4bdd5b020ac6b4f7507c64736f6c63430008150033",
  "immutableReferences": {},
  "source": "// SPDX-License-Identifier: MIT\npragma solidity ^0.8.0;\n\n/**\n * @title Votier\n * @dev A blockchain-based voting system for selecting the best candidate.\n * Admins can add candidates, and users can vote for their preferred candidate.\n * Ensures transparency and immutability of the voting process.\n */\ncontract Votier {\n    // Structure to hold candidate details\n    struct Candidate {\n        uint id; // Unique ID of the candidate\n        string name; // Name of the candidate\n        uint voteCount; // Total votes received by the candidate\n    }\n\n    // Structure to hold voter details\n    struct Voter {\n        bool hasVoted; // Whether the voter has already voted\n        uint votedCandidateId; // ID of the candidate the voter voted for\n    }\n\n\n\n    address public admin; // Address of the admin managing the voting system\n    mapping(uint => Candidate) public candidates; // Mapping of candidate ID to Candidate details\n    mapping(address => Voter) public voters; // Mapping of voter address to Voter details\n    uint public candidatesCount; // Total number of candidates added\n\n    // Event emitted when a new candidate is added\n    event CandidateAdded(uint id, string name);\n\n    // Event emitted when a vote is cast\n    event Voted(address voter, uint candidateId);\n\n    event AdminInitialized(address admin); // Debugging event\n    event ContractDeployed(string message); // Debugging event\n\n    // Modifier to restrict access to admin-only functions\n    modifier onlyAdmin() {\n        require(msg.sender == admin, \"Only admin can perform this action\");\n        _;\n    }\n\n    /**\n     * @dev Constructor sets the deploying address as the admin.\n     */\n    constructor() {\n        admin = msg.sender;\n        emit AdminInitialized(admin);\n        emit ContractDeployed(\"VotingSystem deployed successfully!\");\n    }\n\n    /**\n     * @dev Adds a new candidate to the voting system.\n     * @param _name The name of the candidate to be added.\n     */\n    function addCandidate(string memory _name) public onlyAdmin {\n        candidatesCount++;\n        candidates[candidatesCount] = Candidate(candidatesCount, _name, 0);\n        emit CandidateAdded(candidatesCount, _name);\n    }\n\n    /**\n     * @dev Allows a user to vote for a candidate.\n     * @param _candidateId The ID of the candidate to vote for.\n     */\n    function vote(uint _candidateId) public {\n        require(!voters[msg.sender].hasVoted, \"You have already voted\");\n        require(_candidateId > 0 && _candidateId <= candidatesCount, \"Invalid candidate ID\");\n\n        voters[msg.sender] = Voter(true, _candidateId);\n        candidates[_candidateId].voteCount++;\n\n        emit Voted(msg.sender, _candidateId);\n    }\n\n    /**\n     * @dev Determines the winner of the voting process.\n     * @return winnerId The ID of the winning candidate.\n     * @return winnerName The name of the winning candidate.\n     * @return highestVotes The highest number of votes received by a candidate.\n     */\n    function getWinner() public view returns (uint winnerId, string memory winnerName, uint highestVotes) {\n        uint highestVoteCount = 0;\n        uint winningCandidateId = 0;\n\n        for (uint i = 1; i <= candidatesCount; i++) {\n            if (candidates[i].voteCount > highestVoteCount) {\n                highestVoteCount = candidates[i].voteCount;\n                winningCandidateId = i;\n            }\n        }\n\n        winnerId = winningCandidateId;\n        winnerName = candidates[winningCandidateId].name;\n        highestVotes = highestVoteCount;\n    }\n}\n",
  "sourcePath": "/home/chev/Documents/projects/ofcskn/Votier/smart-contracts/contracts/Votier.sol",
  "compiler": {
    "name": "solc",
    "version": "0.8.21+commit.d9974bed.Emscripten.clang"
  },
  "schemaVersion": "3.4.16",
  "updatedAt": "2024-12-16T00:08:36.374Z",
  "devdoc": {
    "details": "A blockchain-based voting system for selecting the best candidate. Admins can add candidates, and users can vote for their preferred candidate. Ensures transparency and immutability of the voting process.",
    "kind": "dev",
    "methods": {
      "addCandidate(string)": {
        "details": "Adds a new candidate to the voting system.",
        "params": {
          "_name": "The name of the candidate to be added."
        }
      },
      "constructor": {
        "details": "Constructor sets the deploying address as the admin."
      },
      "getWinner()": {
        "details": "Determines the winner of the voting process.",
        "returns": {
          "highestVotes": "The highest number of votes received by a candidate.",
          "winnerId": "The ID of the winning candidate.",
          "winnerName": "The name of the winning candidate."
        }
      },
      "vote(uint256)": {
        "details": "Allows a user to vote for a candidate.",
        "params": {
          "_candidateId": "The ID of the candidate to vote for."
        }
      }
    },
    "title": "Votier",
    "version": 1
  },
  "userdoc": {
    "kind": "user",
    "methods": {},
    "version": 1
  }
}