{
  "contractName": "Votier",
  "abi": [
    {
      "inputs": [
        {
          "internalType": "uint256",
          "name": "_maxCandidatesCount",
          "type": "uint256"
        }
      ],
      "stateMutability": "nonpayable",
      "type": "constructor"
    },
    {
      "anonymous": false,
      "inputs": [
        {
          "indexed": false,
          "internalType": "address",
          "name": "admin",
          "type": "address"
        }
      ],
      "name": "AdminInitialized",
      "type": "event"
    },
    {
      "anonymous": false,
      "inputs": [
        {
          "indexed": false,
          "internalType": "uint256",
          "name": "id",
          "type": "uint256"
        },
        {
          "indexed": false,
          "internalType": "string",
          "name": "name",
          "type": "string"
        }
      ],
      "name": "CandidateAdded",
      "type": "event"
    },
    {
      "anonymous": false,
      "inputs": [
        {
          "indexed": false,
          "internalType": "string",
          "name": "message",
          "type": "string"
        }
      ],
      "name": "ContractDeployed",
      "type": "event"
    },
    {
      "anonymous": false,
      "inputs": [
        {
          "indexed": false,
          "internalType": "address",
          "name": "voter",
          "type": "address"
        },
        {
          "indexed": false,
          "internalType": "uint256",
          "name": "candidateId",
          "type": "uint256"
        }
      ],
      "name": "Voted",
      "type": "event"
    },
    {
      "inputs": [],
      "name": "admin",
      "outputs": [
        {
          "internalType": "address",
          "name": "",
          "type": "address"
        }
      ],
      "stateMutability": "view",
      "type": "function"
    },
    {
      "inputs": [
        {
          "internalType": "string",
          "name": "",
          "type": "string"
        }
      ],
      "name": "candidateNames",
      "outputs": [
        {
          "internalType": "bool",
          "name": "",
          "type": "bool"
        }
      ],
      "stateMutability": "view",
      "type": "function"
    },
    {
      "inputs": [
        {
          "internalType": "uint256",
          "name": "",
          "type": "uint256"
        }
      ],
      "name": "candidates",
      "outputs": [
        {
          "internalType": "uint256",
          "name": "id",
          "type": "uint256"
        },
        {
          "internalType": "string",
          "name": "name",
          "type": "string"
        },
        {
          "internalType": "uint256",
          "name": "voteCount",
          "type": "uint256"
        }
      ],
      "stateMutability": "view",
      "type": "function"
    },
    {
      "inputs": [],
      "name": "candidatesCount",
      "outputs": [
        {
          "internalType": "uint256",
          "name": "",
          "type": "uint256"
        }
      ],
      "stateMutability": "view",
      "type": "function"
    },
    {
      "inputs": [],
      "name": "maxCandidatesCount",
      "outputs": [
        {
          "internalType": "uint256",
          "name": "",
          "type": "uint256"
        }
      ],
      "stateMutability": "view",
      "type": "function"
    },
    {
      "inputs": [
        {
          "internalType": "address",
          "name": "",
          "type": "address"
        }
      ],
      "name": "voters",
      "outputs": [
        {
          "internalType": "bool",
          "name": "hasVoted",
          "type": "bool"
        },
        {
          "internalType": "uint256",
          "name": "votedCandidateId",
          "type": "uint256"
        }
      ],
      "stateMutability": "view",
      "type": "function"
    },
    {
      "inputs": [
        {
          "internalType": "string",
          "name": "_name",
          "type": "string"
        }
      ],
      "name": "addCandidate",
      "outputs": [],
      "stateMutability": "nonpayable",
      "type": "function"
    },
    {
      "inputs": [
        {
          "internalType": "uint256",
          "name": "_candidateId",
          "type": "uint256"
        }
      ],
      "name": "vote",
      "outputs": [],
      "stateMutability": "nonpayable",
      "type": "function"
    },
    {
      "inputs": [],
      "name": "getAllCandidates",
      "outputs": [
        {
          "components": [
            {
              "internalType": "uint256",
              "name": "id",
              "type": "uint256"
            },
            {
              "internalType": "string",
              "name": "name",
              "type": "string"
            },
            {
              "internalType": "uint256",
              "name": "voteCount",
              "type": "uint256"
            }
          ],
          "internalType": "struct Votier.Candidate[]",
          "name": "",
          "type": "tuple[]"
        }
      ],
      "stateMutability": "view",
      "type": "function"
    },
    {
      "inputs": [],
      "name": "getWinner",
      "outputs": [
        {
          "internalType": "uint256",
          "name": "winnerId",
          "type": "uint256"
        },
        {
          "internalType": "string",
          "name": "winnerName",
          "type": "string"
        },
        {
          "internalType": "uint256",
          "name": "highestVotes",
          "type": "uint256"
        }
      ],
      "stateMutability": "view",
      "type": "function"
    }
  ],
  "bytecode": "0x60806040523480156200001157600080fd5b506040516200182138038062001821833981810160405281019062000037919062000167565b600081146200004757806200004a565b60055b600481905550336000806101000a81548173ffffffffffffffffffffffffffffffffffffffff021916908373ffffffffffffffffffffffffffffffffffffffff1602179055507f5241ea49209ad1d2ebe33c2a6d1bc23e7f01b91278237320a96f9b44da5d471260008054906101000a900473ffffffffffffffffffffffffffffffffffffffff16604051620000e19190620001de565b60405180910390a17f0d0ebe685f2c334e83847eb5e89a8d3d8919558c63ef37cf7fc3e7b86dd88b6d604051620001189062000282565b60405180910390a150620002a4565b600080fd5b6000819050919050565b62000141816200012c565b81146200014d57600080fd5b50565b600081519050620001618162000136565b92915050565b60006020828403121562000180576200017f62000127565b5b6000620001908482850162000150565b91505092915050565b600073ffffffffffffffffffffffffffffffffffffffff82169050919050565b6000620001c68262000199565b9050919050565b620001d881620001b9565b82525050565b6000602082019050620001f56000830184620001cd565b92915050565b600082825260208201905092915050565b7f566f74696e6753797374656d206465706c6f796564207375636365737366756c60008201527f6c79210000000000000000000000000000000000000000000000000000000000602082015250565b60006200026a602383620001fb565b915062000277826200020c565b604082019050919050565b600060208201905081810360008301526200029d816200025b565b9050919050565b61156d80620002b46000396000f3fe608060405234801561001057600080fd5b506004361061009e5760003560e01c806378b0f9491161006657806378b0f949146101495780638e7ea5b214610167578063a3ec138d14610187578063dea33815146101b8578063f851a440146101e85761009e565b80630121b93f146100a35780632d35a8a2146100bf5780632e6997fe146100dd5780633477ee2e146100fb578063462e91ec1461012d575b600080fd5b6100bd60048036038101906100b89190610b30565b610206565b005b6100c76103d3565b6040516100d49190610b6c565b60405180910390f35b6100e56103d9565b6040516100f29190610d41565b60405180910390f35b61011560048036038101906101109190610b30565b61054e565b60405161012493929190610dad565b60405180910390f35b61014760048036038101906101429190610f20565b610600565b005b610151610878565b60405161015e9190610b6c565b60405180910390f35b61016f61087e565b60405161017e93929190610dad565b60405180910390f35b6101a1600480360381019061019c9190610fc7565b610997565b6040516101af92919061100f565b60405180910390f35b6101d260048036038101906101cd9190610f20565b6109c8565b6040516101df9190611038565b60405180910390f35b6101f06109fe565b6040516101fd9190611062565b60405180910390f35b600260003373ffffffffffffffffffffffffffffffffffffffff1673ffffffffffffffffffffffffffffffffffffffff16815260200190815260200160002060000160009054906101000a900460ff1615610296576040517f08c379a000000000000000000000000000000000000000000000000000000000815260040161028d906110c9565b60405180910390fd5b6000811180156102a857506003548111155b6102e7576040517f08c379a00000000000000000000000000000000000000000000000000000000081526004016102de90611135565b60405180910390fd5b604051806040016040528060011515815260200182815250600260003373ffffffffffffffffffffffffffffffffffffffff1673ffffffffffffffffffffffffffffffffffffffff16815260200190815260200160002060008201518160000160006101000a81548160ff0219169083151502179055506020820151816001015590505060016000828152602001908152602001600020600201600081548092919061039290611184565b91905055507f4d99b957a2bc29a30ebd96a7be8e68fe50a3c701db28a91436490b7d53870ca433826040516103c89291906111cc565b60405180910390a150565b60035481565b6060600060035467ffffffffffffffff8111156103f9576103f8610df5565b5b60405190808252806020026020018201604052801561043257816020015b61041f610a22565b8152602001906001900390816104175790505b5090506000600190505b600354811161054657600160008281526020019081526020016000206040518060600160405290816000820154815260200160018201805461047d90611224565b80601f01602080910402602001604051908101604052809291908181526020018280546104a990611224565b80156104f65780601f106104cb576101008083540402835291602001916104f6565b820191906000526020600020905b8154815290600101906020018083116104d957829003601f168201915b50505050508152602001600282015481525050826001836105179190611255565b8151811061052857610527611289565b5b6020026020010181905250808061053e90611184565b91505061043c565b508091505090565b600160205280600052604060002060009150905080600001549080600101805461057790611224565b80601f01602080910402602001604051908101604052809291908181526020018280546105a390611224565b80156105f05780601f106105c5576101008083540402835291602001916105f0565b820191906000526020600020905b8154815290600101906020018083116105d357829003601f168201915b5050505050908060020154905083565b60008054906101000a900473ffffffffffffffffffffffffffffffffffffffff1673ffffffffffffffffffffffffffffffffffffffff163373ffffffffffffffffffffffffffffffffffffffff161461068e576040517f08c379a00000000000000000000000000000000000000000000000000000000081526004016106859061132a565b60405180910390fd5b600354600454116106d4576040517f08c379a00000000000000000000000000000000000000000000000000000000081526004016106cb906113bc565b60405180910390fd5b6000815111610718576040517f08c379a000000000000000000000000000000000000000000000000000000000815260040161070f90611428565b60405180910390fd5b6005816040516107289190611484565b908152602001604051809103902060009054906101000a900460ff1615610784576040517f08c379a000000000000000000000000000000000000000000000000000000000815260040161077b906114e7565b60405180910390fd5b6003600081548092919061079790611184565b91905055506040518060600160405280600354815260200182815260200160008152506001600060035481526020019081526020016000206000820151816000015560208201518160010190805190602001906107f5929190610a43565b506040820151816002015590505060016005826040516108159190611484565b908152602001604051809103902060006101000a81548160ff0219169083151502179055507fe83b2a43e7e82d975c8a0a6d2f045153c869e111136a34d1889ab7b598e396a36003548260405161086d929190611507565b60405180910390a150565b60045481565b6000606060008060009050600080600190505b60035481116108e85782600160008381526020019081526020016000206002015411156108d557600160008281526020019081526020016000206002015492508091505b80806108e090611184565b915050610891565b5080945060016000828152602001908152602001600020600101805461090d90611224565b80601f016020809104026020016040519081016040528092919081815260200182805461093990611224565b80156109865780601f1061095b57610100808354040283529160200191610986565b820191906000526020600020905b81548152906001019060200180831161096957829003601f168201915b505050505093508192505050909192565b60026020528060005260406000206000915090508060000160009054906101000a900460ff16908060010154905082565b6005818051602081018201805184825260208301602085012081835280955050505050506000915054906101000a900460ff1681565b60008054906101000a900473ffffffffffffffffffffffffffffffffffffffff1681565b60405180606001604052806000815260200160608152602001600081525090565b828054610a4f90611224565b90600052602060002090601f016020900481019282610a715760008555610ab8565b82601f10610a8a57805160ff1916838001178555610ab8565b82800160010185558215610ab8579182015b82811115610ab7578251825591602001919060010190610a9c565b5b509050610ac59190610ac9565b5090565b5b80821115610ae2576000816000905550600101610aca565b5090565b6000604051905090565b600080fd5b600080fd5b6000819050919050565b610b0d81610afa565b8114610b1857600080fd5b50565b600081359050610b2a81610b04565b92915050565b600060208284031215610b4657610b45610af0565b5b6000610b5484828501610b1b565b91505092915050565b610b6681610afa565b82525050565b6000602082019050610b816000830184610b5d565b92915050565b600081519050919050565b600082825260208201905092915050565b6000819050602082019050919050565b610bbc81610afa565b82525050565b600081519050919050565b600082825260208201905092915050565b60005b83811015610bfc578082015181840152602081019050610be1565b83811115610c0b576000848401525b50505050565b6000601f19601f8301169050919050565b6000610c2d82610bc2565b610c378185610bcd565b9350610c47818560208601610bde565b610c5081610c11565b840191505092915050565b6000606083016000830151610c736000860182610bb3565b5060208301518482036020860152610c8b8282610c22565b9150506040830151610ca06040860182610bb3565b508091505092915050565b6000610cb78383610c5b565b905092915050565b6000602082019050919050565b6000610cd782610b87565b610ce18185610b92565b935083602082028501610cf385610ba3565b8060005b85811015610d2f5784840389528151610d108582610cab565b9450610d1b83610cbf565b925060208a01995050600181019050610cf7565b50829750879550505050505092915050565b60006020820190508181036000830152610d5b8184610ccc565b905092915050565b600082825260208201905092915050565b6000610d7f82610bc2565b610d898185610d63565b9350610d99818560208601610bde565b610da281610c11565b840191505092915050565b6000606082019050610dc26000830186610b5d565b8181036020830152610dd48185610d74565b9050610de36040830184610b5d565b949350505050565b600080fd5b600080fd5b7f4e487b7100000000000000000000000000000000000000000000000000000000600052604160045260246000fd5b610e2d82610c11565b810181811067ffffffffffffffff82111715610e4c57610e4b610df5565b5b80604052505050565b6000610e5f610ae6565b9050610e6b8282610e24565b919050565b600067ffffffffffffffff821115610e8b57610e8a610df5565b5b610e9482610c11565b9050602081019050919050565b82818337600083830152505050565b6000610ec3610ebe84610e70565b610e55565b905082815260208101848484011115610edf57610ede610df0565b5b610eea848285610ea1565b509392505050565b600082601f830112610f0757610f06610deb565b5b8135610f17848260208601610eb0565b91505092915050565b600060208284031215610f3657610f35610af0565b5b600082013567ffffffffffffffff811115610f5457610f53610af5565b5b610f6084828501610ef2565b91505092915050565b600073ffffffffffffffffffffffffffffffffffffffff82169050919050565b6000610f9482610f69565b9050919050565b610fa481610f89565b8114610faf57600080fd5b50565b600081359050610fc181610f9b565b92915050565b600060208284031215610fdd57610fdc610af0565b5b6000610feb84828501610fb2565b91505092915050565b60008115159050919050565b61100981610ff4565b82525050565b60006040820190506110246000830185611000565b6110316020830184610b5d565b9392505050565b600060208201905061104d6000830184611000565b92915050565b61105c81610f89565b82525050565b60006020820190506110776000830184611053565b92915050565b7f596f75206861766520616c726561647920766f74656400000000000000000000600082015250565b60006110b3601683610d63565b91506110be8261107d565b602082019050919050565b600060208201905081810360008301526110e2816110a6565b9050919050565b7f496e76616c69642063616e646964617465204944000000000000000000000000600082015250565b600061111f601483610d63565b915061112a826110e9565b602082019050919050565b6000602082019050818103600083015261114e81611112565b9050919050565b7f4e487b7100000000000000000000000000000000000000000000000000000000600052601160045260246000fd5b600061118f82610afa565b91507fffffffffffffffffffffffffffffffffffffffffffffffffffffffffffffffff82036111c1576111c0611155565b5b600182019050919050565b60006040820190506111e16000830185611053565b6111ee6020830184610b5d565b9392505050565b7f4e487b7100000000000000000000000000000000000000000000000000000000600052602260045260246000fd5b6000600282049050600182168061123c57607f821691505b60208210810361124f5761124e6111f5565b5b50919050565b600061126082610afa565b915061126b83610afa565b92508282101561127e5761127d611155565b5b828203905092915050565b7f4e487b7100000000000000000000000000000000000000000000000000000000600052603260045260246000fd5b7f4f6e6c792061646d696e2063616e20706572666f726d2074686973206163746960008201527f6f6e000000000000000000000000000000000000000000000000000000000000602082015250565b6000611314602283610d63565b915061131f826112b8565b604082019050919050565b6000602082019050818103600083015261134381611307565b9050919050565b7f43616e6469646174657320636f756e7420666f7220616e20656c656374696f6e60008201527f2063616e6e6f7420626520657175616c2077697468206d61782076616c756521602082015250565b60006113a6604083610d63565b91506113b18261134a565b604082019050919050565b600060208201905081810360008301526113d581611399565b9050919050565b7f43616e646964617465206e616d652063616e6e6f7420626520656d7074792e00600082015250565b6000611412601f83610d63565b915061141d826113dc565b602082019050919050565b6000602082019050818103600083015261144181611405565b9050919050565b600081905092915050565b600061145e82610bc2565b6114688185611448565b9350611478818560208601610bde565b80840191505092915050565b60006114908284611453565b915081905092915050565b7f43616e646964617465206e616d6520616c7265616479206578697374732e0000600082015250565b60006114d1601e83610d63565b91506114dc8261149b565b602082019050919050565b60006020820190508181036000830152611500816114c4565b9050919050565b600060408201905061151c6000830185610b5d565b818103602083015261152e8184610d74565b9050939250505056fea2646970667358221220731492ec59725e25f278d636f168761afde86ac72df8654ffd8d95247177271f64736f6c634300080d0033",
  "immutableReferences": {},
  "source": "// SPDX-License-Identifier: MIT\npragma solidity ^0.8.13;\n\n/**\n * @title Votier\n * @dev A blockchain-based voting system for selecting the best candidate.\n * Admins can add candidates, and users can vote for their preferred candidate.\n * Ensures transparency and immutability of the voting process.\n */\ncontract Votier {\n    // Structure to hold candidate details\n    struct Candidate {\n        uint id; // Unique ID of the candidate\n        string name; // Name of the candidate\n        uint voteCount; // Total votes received by the candidate\n    }\n\n    // Structure to hold voter details\n    struct Voter {\n        bool hasVoted; // Whether the voter has already voted\n        uint votedCandidateId; // ID of the candidate the voter voted for\n    }\n\n    address public admin; // Address of the admin managing the voting system\n    mapping(uint => Candidate) public candidates; // Mapping of candidate ID to Candidate details\n    mapping(address => Voter) public voters; // Mapping of voter address to Voter details\n    uint public candidatesCount; // Total number of candidates added\n    uint public maxCandidatesCount; // Max candidates can be joined to the election\n    mapping(string => bool) public candidateNames; // Mapping to track if a candidate name already exists\n\n    // Event emitted when a new candidate is added\n    event CandidateAdded(uint id, string name);\n\n    // Event emitted when a vote is cast\n    event Voted(address voter, uint candidateId);\n\n    event AdminInitialized(address admin); // Debugging event\n    event ContractDeployed(string message); // Debugging event\n\n    // Modifier to restrict access to admin-only functions\n    modifier onlyAdmin() {\n        require(msg.sender == admin, \"Only admin can perform this action\");\n        _;\n    }\n\n    /**\n     * @dev Constructor sets the deploying address as the admin.\n     */\n    constructor(uint _maxCandidatesCount) {\n        // Default: 5 candidates\n        maxCandidatesCount = _maxCandidatesCount == 0 ? 5 : _maxCandidatesCount;\n        admin = msg.sender;\n        emit AdminInitialized(admin);\n        emit ContractDeployed(\"VotingSystem deployed successfully!\");\n    }\n\n    /**\n     * @dev Adds a new candidate to the voting system.\n     * @param _name The name of the candidate to be added.\n     */\n    function addCandidate(string memory _name) public onlyAdmin {\n        require(maxCandidatesCount > candidatesCount, \"Candidates count for an election cannot be equal with max value!\");\n        require(bytes(_name).length > 0, \"Candidate name cannot be empty.\");\n        require(!candidateNames[_name], \"Candidate name already exists.\");\n        candidatesCount++;\n        candidates[candidatesCount] = Candidate(candidatesCount, _name, 0);\n        candidateNames[_name] = true; // Mark the name as used\n        emit CandidateAdded(candidatesCount, _name);\n    }\n\n    /**\n     * @dev Allows a user to vote for a candidate.\n     * @param _candidateId The ID of the candidate to vote for.\n     */\n    function vote(uint _candidateId) public {\n        require(!voters[msg.sender].hasVoted, \"You have already voted\");\n        require(_candidateId > 0 && _candidateId <= candidatesCount, \"Invalid candidate ID\");\n\n        voters[msg.sender] = Voter(true, _candidateId);\n        candidates[_candidateId].voteCount++;\n\n        emit Voted(msg.sender, _candidateId);\n    }\n\n    // Function to get a candidate by ID (no need to manually define it)\n    // The getter is automatically available due to `public` keyword in the mapping\n\n    // Function to get all candidates (iterate using candidatesCount)\n    function getAllCandidates() public view returns (Candidate[] memory) {\n        Candidate[] memory allCandidates = new Candidate[](candidatesCount);\n        \n        for (uint i = 1; i <= candidatesCount; i++) {\n            allCandidates[i - 1] = candidates[i];\n        }\n        \n        return allCandidates;\n    }\n    /**\n     * @dev Determines the winner of the voting process.\n     * @return winnerId The ID of the winning candidate.\n     * @return winnerName The name of the winning candidate.\n     * @return highestVotes The highest number of votes received by a candidate.\n     */\n    function getWinner() public view returns (uint winnerId, string memory winnerName, uint highestVotes) {\n        uint highestVoteCount = 0;\n        uint winningCandidateId = 0;\n\n        for (uint i = 1; i <= candidatesCount; i++) {\n            if (candidates[i].voteCount > highestVoteCount) {\n                highestVoteCount = candidates[i].voteCount;\n                winningCandidateId = i;\n            }\n        }\n\n        winnerId = winningCandidateId;\n        winnerName = candidates[winningCandidateId].name;\n        highestVotes = highestVoteCount;\n    }\n}\n",
  "sourcePath": "/home/chev/Documents/projects/ofcskn/Votier/smart-contracts/contracts/Votier.sol",
  "compiler": {
    "name": "solc",
    "version": "0.8.13+commit.abaa5c0e.Emscripten.clang"
  },
  "schemaVersion": "3.4.16",
  "updatedAt": "2024-12-16T12:50:44.266Z",
  "devdoc": {
    "details": "A blockchain-based voting system for selecting the best candidate. Admins can add candidates, and users can vote for their preferred candidate. Ensures transparency and immutability of the voting process.",
    "kind": "dev",
    "methods": {
      "addCandidate(string)": {
        "details": "Adds a new candidate to the voting system.",
        "params": {
          "_name": "The name of the candidate to be added."
        }
      },
      "constructor": {
        "details": "Constructor sets the deploying address as the admin."
      },
      "getWinner()": {
        "details": "Determines the winner of the voting process.",
        "returns": {
          "highestVotes": "The highest number of votes received by a candidate.",
          "winnerId": "The ID of the winning candidate.",
          "winnerName": "The name of the winning candidate."
        }
      },
      "vote(uint256)": {
        "details": "Allows a user to vote for a candidate.",
        "params": {
          "_candidateId": "The ID of the candidate to vote for."
        }
      }
    },
    "title": "Votier",
    "version": 1
  },
  "userdoc": {
    "kind": "user",
    "methods": {},
    "version": 1
  }
}