{
  "contractName": "Votier",
  "abi": [
    {
      "inputs": [],
      "stateMutability": "nonpayable",
      "type": "constructor"
    },
    {
      "anonymous": false,
      "inputs": [
        {
          "indexed": false,
          "internalType": "address",
          "name": "admin",
          "type": "address"
        }
      ],
      "name": "AdminInitialized",
      "type": "event"
    },
    {
      "anonymous": false,
      "inputs": [
        {
          "indexed": false,
          "internalType": "uint256",
          "name": "id",
          "type": "uint256"
        },
        {
          "indexed": false,
          "internalType": "string",
          "name": "name",
          "type": "string"
        }
      ],
      "name": "CandidateAdded",
      "type": "event"
    },
    {
      "anonymous": false,
      "inputs": [
        {
          "indexed": false,
          "internalType": "string",
          "name": "message",
          "type": "string"
        }
      ],
      "name": "ContractDeployed",
      "type": "event"
    },
    {
      "anonymous": false,
      "inputs": [
        {
          "indexed": false,
          "internalType": "address",
          "name": "voter",
          "type": "address"
        },
        {
          "indexed": false,
          "internalType": "uint256",
          "name": "candidateId",
          "type": "uint256"
        }
      ],
      "name": "Voted",
      "type": "event"
    },
    {
      "inputs": [],
      "name": "admin",
      "outputs": [
        {
          "internalType": "address",
          "name": "",
          "type": "address"
        }
      ],
      "stateMutability": "view",
      "type": "function",
      "constant": true
    },
    {
      "inputs": [
        {
          "internalType": "string",
          "name": "",
          "type": "string"
        }
      ],
      "name": "candidateNames",
      "outputs": [
        {
          "internalType": "bool",
          "name": "",
          "type": "bool"
        }
      ],
      "stateMutability": "view",
      "type": "function",
      "constant": true
    },
    {
      "inputs": [
        {
          "internalType": "uint256",
          "name": "",
          "type": "uint256"
        }
      ],
      "name": "candidates",
      "outputs": [
        {
          "internalType": "uint256",
          "name": "id",
          "type": "uint256"
        },
        {
          "internalType": "string",
          "name": "name",
          "type": "string"
        },
        {
          "internalType": "uint256",
          "name": "voteCount",
          "type": "uint256"
        }
      ],
      "stateMutability": "view",
      "type": "function",
      "constant": true
    },
    {
      "inputs": [],
      "name": "candidatesCount",
      "outputs": [
        {
          "internalType": "uint256",
          "name": "",
          "type": "uint256"
        }
      ],
      "stateMutability": "view",
      "type": "function",
      "constant": true
    },
    {
      "inputs": [
        {
          "internalType": "address",
          "name": "",
          "type": "address"
        }
      ],
      "name": "voters",
      "outputs": [
        {
          "internalType": "bool",
          "name": "hasVoted",
          "type": "bool"
        },
        {
          "internalType": "uint256",
          "name": "votedCandidateId",
          "type": "uint256"
        }
      ],
      "stateMutability": "view",
      "type": "function",
      "constant": true
    },
    {
      "inputs": [
        {
          "internalType": "string",
          "name": "_name",
          "type": "string"
        }
      ],
      "name": "addCandidate",
      "outputs": [],
      "stateMutability": "nonpayable",
      "type": "function"
    },
    {
      "inputs": [
        {
          "internalType": "uint256",
          "name": "_candidateId",
          "type": "uint256"
        }
      ],
      "name": "vote",
      "outputs": [],
      "stateMutability": "nonpayable",
      "type": "function"
    },
    {
      "inputs": [],
      "name": "getAllCandidates",
      "outputs": [
        {
          "components": [
            {
              "internalType": "uint256",
              "name": "id",
              "type": "uint256"
            },
            {
              "internalType": "string",
              "name": "name",
              "type": "string"
            },
            {
              "internalType": "uint256",
              "name": "voteCount",
              "type": "uint256"
            }
          ],
          "internalType": "struct Votier.Candidate[]",
          "name": "",
          "type": "tuple[]"
        }
      ],
      "stateMutability": "view",
      "type": "function",
      "constant": true
    },
    {
      "inputs": [],
      "name": "getWinner",
      "outputs": [
        {
          "internalType": "uint256",
          "name": "winnerId",
          "type": "uint256"
        },
        {
          "internalType": "string",
          "name": "winnerName",
          "type": "string"
        },
        {
          "internalType": "uint256",
          "name": "highestVotes",
          "type": "uint256"
        }
      ],
      "stateMutability": "view",
      "type": "function",
      "constant": true
    }
  ],
  "bytecode": "0x60806040523480156200001157600080fd5b50336000806101000a81548173ffffffffffffffffffffffffffffffffffffffff021916908373ffffffffffffffffffffffffffffffffffffffff1602179055507f5241ea49209ad1d2ebe33c2a6d1bc23e7f01b91278237320a96f9b44da5d471260008054906101000a900473ffffffffffffffffffffffffffffffffffffffff16604051620000a391906200012d565b60405180910390a17f0d0ebe685f2c334e83847eb5e89a8d3d8919558c63ef37cf7fc3e7b86dd88b6d604051620000da90620001d1565b60405180910390a1620001f3565b600073ffffffffffffffffffffffffffffffffffffffff82169050919050565b60006200011582620000e8565b9050919050565b620001278162000108565b82525050565b60006020820190506200014460008301846200011c565b92915050565b600082825260208201905092915050565b7f566f74696e6753797374656d206465706c6f796564207375636365737366756c60008201527f6c79210000000000000000000000000000000000000000000000000000000000602082015250565b6000620001b96023836200014a565b9150620001c6826200015b565b604082019050919050565b60006020820190508181036000830152620001ec81620001aa565b9050919050565b6113b680620002036000396000f3fe608060405234801561001057600080fd5b50600436106100935760003560e01c8063462e91ec11610066578063462e91ec146101225780638e7ea5b21461013e578063a3ec138d1461015e578063dea338151461018f578063f851a440146101bf57610093565b80630121b93f146100985780632d35a8a2146100b45780632e6997fe146100d25780633477ee2e146100f0575b600080fd5b6100b260048036038101906100ad9190610a77565b6101dd565b005b6100bc6103aa565b6040516100c99190610ab3565b60405180910390f35b6100da6103b0565b6040516100e79190610c88565b60405180910390f35b61010a60048036038101906101059190610a77565b610525565b60405161011993929190610cf4565b60405180910390f35b61013c60048036038101906101379190610e67565b6105d7565b005b6101466107c5565b60405161015593929190610cf4565b60405180910390f35b61017860048036038101906101739190610f0e565b6108de565b604051610186929190610f56565b60405180910390f35b6101a960048036038101906101a49190610e67565b61090f565b6040516101b69190610f7f565b60405180910390f35b6101c7610945565b6040516101d49190610fa9565b60405180910390f35b600260003373ffffffffffffffffffffffffffffffffffffffff1673ffffffffffffffffffffffffffffffffffffffff16815260200190815260200160002060000160009054906101000a900460ff161561026d576040517f08c379a000000000000000000000000000000000000000000000000000000000815260040161026490611010565b60405180910390fd5b60008111801561027f57506003548111155b6102be576040517f08c379a00000000000000000000000000000000000000000000000000000000081526004016102b59061107c565b60405180910390fd5b604051806040016040528060011515815260200182815250600260003373ffffffffffffffffffffffffffffffffffffffff1673ffffffffffffffffffffffffffffffffffffffff16815260200190815260200160002060008201518160000160006101000a81548160ff02191690831515021790555060208201518160010155905050600160008281526020019081526020016000206002016000815480929190610369906110cb565b91905055507f4d99b957a2bc29a30ebd96a7be8e68fe50a3c701db28a91436490b7d53870ca4338260405161039f929190611113565b60405180910390a150565b60035481565b6060600060035467ffffffffffffffff8111156103d0576103cf610d3c565b5b60405190808252806020026020018201604052801561040957816020015b6103f6610969565b8152602001906001900390816103ee5790505b5090506000600190505b600354811161051d5760016000828152602001908152602001600020604051806060016040529081600082015481526020016001820180546104549061116b565b80601f01602080910402602001604051908101604052809291908181526020018280546104809061116b565b80156104cd5780601f106104a2576101008083540402835291602001916104cd565b820191906000526020600020905b8154815290600101906020018083116104b057829003601f168201915b50505050508152602001600282015481525050826001836104ee919061119c565b815181106104ff576104fe6111d0565b5b60200260200101819052508080610515906110cb565b915050610413565b508091505090565b600160205280600052604060002060009150905080600001549080600101805461054e9061116b565b80601f016020809104026020016040519081016040528092919081815260200182805461057a9061116b565b80156105c75780601f1061059c576101008083540402835291602001916105c7565b820191906000526020600020905b8154815290600101906020018083116105aa57829003601f168201915b5050505050908060020154905083565b60008054906101000a900473ffffffffffffffffffffffffffffffffffffffff1673ffffffffffffffffffffffffffffffffffffffff163373ffffffffffffffffffffffffffffffffffffffff1614610665576040517f08c379a000000000000000000000000000000000000000000000000000000000815260040161065c90611271565b60405180910390fd5b60048160405161067591906112cd565b908152602001604051809103902060009054906101000a900460ff16156106d1576040517f08c379a00000000000000000000000000000000000000000000000000000000081526004016106c890611330565b60405180910390fd5b600360008154809291906106e4906110cb565b919050555060405180606001604052806003548152602001828152602001600081525060016000600354815260200190815260200160002060008201518160000155602082015181600101908051906020019061074292919061098a565b5060408201518160020155905050600160048260405161076291906112cd565b908152602001604051809103902060006101000a81548160ff0219169083151502179055507fe83b2a43e7e82d975c8a0a6d2f045153c869e111136a34d1889ab7b598e396a3600354826040516107ba929190611350565b60405180910390a150565b6000606060008060009050600080600190505b600354811161082f57826001600083815260200190815260200160002060020154111561081c57600160008281526020019081526020016000206002015492508091505b8080610827906110cb565b9150506107d8565b508094506001600082815260200190815260200160002060010180546108549061116b565b80601f01602080910402602001604051908101604052809291908181526020018280546108809061116b565b80156108cd5780601f106108a2576101008083540402835291602001916108cd565b820191906000526020600020905b8154815290600101906020018083116108b057829003601f168201915b505050505093508192505050909192565b60026020528060005260406000206000915090508060000160009054906101000a900460ff16908060010154905082565b6004818051602081018201805184825260208301602085012081835280955050505050506000915054906101000a900460ff1681565b60008054906101000a900473ffffffffffffffffffffffffffffffffffffffff1681565b60405180606001604052806000815260200160608152602001600081525090565b8280546109969061116b565b90600052602060002090601f0160209004810192826109b857600085556109ff565b82601f106109d157805160ff19168380011785556109ff565b828001600101855582156109ff579182015b828111156109fe5782518255916020019190600101906109e3565b5b509050610a0c9190610a10565b5090565b5b80821115610a29576000816000905550600101610a11565b5090565b6000604051905090565b600080fd5b600080fd5b6000819050919050565b610a5481610a41565b8114610a5f57600080fd5b50565b600081359050610a7181610a4b565b92915050565b600060208284031215610a8d57610a8c610a37565b5b6000610a9b84828501610a62565b91505092915050565b610aad81610a41565b82525050565b6000602082019050610ac86000830184610aa4565b92915050565b600081519050919050565b600082825260208201905092915050565b6000819050602082019050919050565b610b0381610a41565b82525050565b600081519050919050565b600082825260208201905092915050565b60005b83811015610b43578082015181840152602081019050610b28565b83811115610b52576000848401525b50505050565b6000601f19601f8301169050919050565b6000610b7482610b09565b610b7e8185610b14565b9350610b8e818560208601610b25565b610b9781610b58565b840191505092915050565b6000606083016000830151610bba6000860182610afa565b5060208301518482036020860152610bd28282610b69565b9150506040830151610be76040860182610afa565b508091505092915050565b6000610bfe8383610ba2565b905092915050565b6000602082019050919050565b6000610c1e82610ace565b610c288185610ad9565b935083602082028501610c3a85610aea565b8060005b85811015610c765784840389528151610c578582610bf2565b9450610c6283610c06565b925060208a01995050600181019050610c3e565b50829750879550505050505092915050565b60006020820190508181036000830152610ca28184610c13565b905092915050565b600082825260208201905092915050565b6000610cc682610b09565b610cd08185610caa565b9350610ce0818560208601610b25565b610ce981610b58565b840191505092915050565b6000606082019050610d096000830186610aa4565b8181036020830152610d1b8185610cbb565b9050610d2a6040830184610aa4565b949350505050565b600080fd5b600080fd5b7f4e487b7100000000000000000000000000000000000000000000000000000000600052604160045260246000fd5b610d7482610b58565b810181811067ffffffffffffffff82111715610d9357610d92610d3c565b5b80604052505050565b6000610da6610a2d565b9050610db28282610d6b565b919050565b600067ffffffffffffffff821115610dd257610dd1610d3c565b5b610ddb82610b58565b9050602081019050919050565b82818337600083830152505050565b6000610e0a610e0584610db7565b610d9c565b905082815260208101848484011115610e2657610e25610d37565b5b610e31848285610de8565b509392505050565b600082601f830112610e4e57610e4d610d32565b5b8135610e5e848260208601610df7565b91505092915050565b600060208284031215610e7d57610e7c610a37565b5b600082013567ffffffffffffffff811115610e9b57610e9a610a3c565b5b610ea784828501610e39565b91505092915050565b600073ffffffffffffffffffffffffffffffffffffffff82169050919050565b6000610edb82610eb0565b9050919050565b610eeb81610ed0565b8114610ef657600080fd5b50565b600081359050610f0881610ee2565b92915050565b600060208284031215610f2457610f23610a37565b5b6000610f3284828501610ef9565b91505092915050565b60008115159050919050565b610f5081610f3b565b82525050565b6000604082019050610f6b6000830185610f47565b610f786020830184610aa4565b9392505050565b6000602082019050610f946000830184610f47565b92915050565b610fa381610ed0565b82525050565b6000602082019050610fbe6000830184610f9a565b92915050565b7f596f75206861766520616c726561647920766f74656400000000000000000000600082015250565b6000610ffa601683610caa565b915061100582610fc4565b602082019050919050565b6000602082019050818103600083015261102981610fed565b9050919050565b7f496e76616c69642063616e646964617465204944000000000000000000000000600082015250565b6000611066601483610caa565b915061107182611030565b602082019050919050565b6000602082019050818103600083015261109581611059565b9050919050565b7f4e487b7100000000000000000000000000000000000000000000000000000000600052601160045260246000fd5b60006110d682610a41565b91507fffffffffffffffffffffffffffffffffffffffffffffffffffffffffffffffff82036111085761110761109c565b5b600182019050919050565b60006040820190506111286000830185610f9a565b6111356020830184610aa4565b9392505050565b7f4e487b7100000000000000000000000000000000000000000000000000000000600052602260045260246000fd5b6000600282049050600182168061118357607f821691505b6020821081036111965761119561113c565b5b50919050565b60006111a782610a41565b91506111b283610a41565b9250828210156111c5576111c461109c565b5b828203905092915050565b7f4e487b7100000000000000000000000000000000000000000000000000000000600052603260045260246000fd5b7f4f6e6c792061646d696e2063616e20706572666f726d2074686973206163746960008201527f6f6e000000000000000000000000000000000000000000000000000000000000602082015250565b600061125b602283610caa565b9150611266826111ff565b604082019050919050565b6000602082019050818103600083015261128a8161124e565b9050919050565b600081905092915050565b60006112a782610b09565b6112b18185611291565b93506112c1818560208601610b25565b80840191505092915050565b60006112d9828461129c565b915081905092915050565b7f43616e646964617465206e616d6520616c7265616479206578697374732e0000600082015250565b600061131a601e83610caa565b9150611325826112e4565b602082019050919050565b600060208201905081810360008301526113498161130d565b9050919050565b60006040820190506113656000830185610aa4565b81810360208301526113778184610cbb565b9050939250505056fea2646970667358221220df15a5340a9504afb35b515de5c800764fd6162ef0124e31df5fb3e50b2f006f64736f6c634300080d0033",
  "immutableReferences": {},
  "source": "// SPDX-License-Identifier: MIT\npragma solidity ^0.8.13;\n\n/**\n * @title Votier\n * @dev A blockchain-based voting system for selecting the best candidate.\n * Admins can add candidates, and users can vote for their preferred candidate.\n * Ensures transparency and immutability of the voting process.\n */\ncontract Votier {\n    // Structure to hold candidate details\n    struct Candidate {\n        uint id; // Unique ID of the candidate\n        string name; // Name of the candidate\n        uint voteCount; // Total votes received by the candidate\n    }\n\n    // Structure to hold voter details\n    struct Voter {\n        bool hasVoted; // Whether the voter has already voted\n        uint votedCandidateId; // ID of the candidate the voter voted for\n    }\n\n    address public admin; // Address of the admin managing the voting system\n    mapping(uint => Candidate) public candidates; // Mapping of candidate ID to Candidate details\n    mapping(address => Voter) public voters; // Mapping of voter address to Voter details\n    uint public candidatesCount; // Total number of candidates added\n    mapping(string => bool) public candidateNames; // Mapping to track if a candidate name already exists\n\n    // Event emitted when a new candidate is added\n    event CandidateAdded(uint id, string name);\n\n    // Event emitted when a vote is cast\n    event Voted(address voter, uint candidateId);\n\n    event AdminInitialized(address admin); // Debugging event\n    event ContractDeployed(string message); // Debugging event\n\n    // Modifier to restrict access to admin-only functions\n    modifier onlyAdmin() {\n        require(msg.sender == admin, \"Only admin can perform this action\");\n        _;\n    }\n\n    /**\n     * @dev Constructor sets the deploying address as the admin.\n     */\n    constructor() {\n        admin = msg.sender;\n        emit AdminInitialized(admin);\n        emit ContractDeployed(\"VotingSystem deployed successfully!\");\n    }\n\n    /**\n     * @dev Adds a new candidate to the voting system.\n     * @param _name The name of the candidate to be added.\n     */\n    function addCandidate(string memory _name) public onlyAdmin {\n        require(!candidateNames[_name], \"Candidate name already exists.\");\n        candidatesCount++;\n        candidates[candidatesCount] = Candidate(candidatesCount, _name, 0);\n        candidateNames[_name] = true; // Mark the name as used\n        emit CandidateAdded(candidatesCount, _name);\n    }\n\n    /**\n     * @dev Allows a user to vote for a candidate.\n     * @param _candidateId The ID of the candidate to vote for.\n     */\n    function vote(uint _candidateId) public {\n        require(!voters[msg.sender].hasVoted, \"You have already voted\");\n        require(_candidateId > 0 && _candidateId <= candidatesCount, \"Invalid candidate ID\");\n\n        voters[msg.sender] = Voter(true, _candidateId);\n        candidates[_candidateId].voteCount++;\n\n        emit Voted(msg.sender, _candidateId);\n    }\n\n    // Function to get a candidate by ID (no need to manually define it)\n    // The getter is automatically available due to `public` keyword in the mapping\n\n    // Function to get all candidates (iterate using candidatesCount)\n    function getAllCandidates() public view returns (Candidate[] memory) {\n        Candidate[] memory allCandidates = new Candidate[](candidatesCount);\n        \n        for (uint i = 1; i <= candidatesCount; i++) {\n            allCandidates[i - 1] = candidates[i];\n        }\n        \n        return allCandidates;\n    }\n    /**\n     * @dev Determines the winner of the voting process.\n     * @return winnerId The ID of the winning candidate.\n     * @return winnerName The name of the winning candidate.\n     * @return highestVotes The highest number of votes received by a candidate.\n     */\n    function getWinner() public view returns (uint winnerId, string memory winnerName, uint highestVotes) {\n        uint highestVoteCount = 0;\n        uint winningCandidateId = 0;\n\n        for (uint i = 1; i <= candidatesCount; i++) {\n            if (candidates[i].voteCount > highestVoteCount) {\n                highestVoteCount = candidates[i].voteCount;\n                winningCandidateId = i;\n            }\n        }\n\n        winnerId = winningCandidateId;\n        winnerName = candidates[winningCandidateId].name;\n        highestVotes = highestVoteCount;\n    }\n}\n",
  "sourcePath": "/home/chev/Documents/projects/ofcskn/Votier/smart-contracts/contracts/Votier.sol",
  "compiler": {
    "name": "solc",
    "version": "0.8.13+commit.abaa5c0e.Emscripten.clang"
  },
  "schemaVersion": "3.4.16",
  "updatedAt": "2024-12-16T02:36:47.910Z",
  "networkType": "ethereum",
  "devdoc": {
    "details": "A blockchain-based voting system for selecting the best candidate. Admins can add candidates, and users can vote for their preferred candidate. Ensures transparency and immutability of the voting process.",
    "kind": "dev",
    "methods": {
      "addCandidate(string)": {
        "details": "Adds a new candidate to the voting system.",
        "params": {
          "_name": "The name of the candidate to be added."
        }
      },
      "constructor": {
        "details": "Constructor sets the deploying address as the admin."
      },
      "getWinner()": {
        "details": "Determines the winner of the voting process.",
        "returns": {
          "highestVotes": "The highest number of votes received by a candidate.",
          "winnerId": "The ID of the winning candidate.",
          "winnerName": "The name of the winning candidate."
        }
      },
      "vote(uint256)": {
        "details": "Allows a user to vote for a candidate.",
        "params": {
          "_candidateId": "The ID of the candidate to vote for."
        }
      }
    },
    "title": "Votier",
    "version": 1
  },
  "userdoc": {
    "kind": "user",
    "methods": {},
    "version": 1
  }
}