{
  "contractName": "Votier",
  "abi": [
    {
      "inputs": [
        {
          "internalType": "uint256",
          "name": "_maxCandidatesCount",
          "type": "uint256"
        },
        {
          "internalType": "uint256",
          "name": "_endVotingTime",
          "type": "uint256"
        }
      ],
      "stateMutability": "nonpayable",
      "type": "constructor"
    },
    {
      "anonymous": false,
      "inputs": [
        {
          "indexed": false,
          "internalType": "address",
          "name": "admin",
          "type": "address"
        }
      ],
      "name": "AdminInitialized",
      "type": "event"
    },
    {
      "anonymous": false,
      "inputs": [
        {
          "indexed": false,
          "internalType": "uint256",
          "name": "id",
          "type": "uint256"
        },
        {
          "indexed": false,
          "internalType": "string",
          "name": "name",
          "type": "string"
        }
      ],
      "name": "CandidateAdded",
      "type": "event"
    },
    {
      "anonymous": false,
      "inputs": [
        {
          "indexed": false,
          "internalType": "string",
          "name": "message",
          "type": "string"
        }
      ],
      "name": "ContractDeployed",
      "type": "event"
    },
    {
      "anonymous": false,
      "inputs": [
        {
          "indexed": false,
          "internalType": "address",
          "name": "voter",
          "type": "address"
        },
        {
          "indexed": false,
          "internalType": "uint256",
          "name": "candidateId",
          "type": "uint256"
        },
        {
          "indexed": false,
          "internalType": "uint256",
          "name": "votedTime",
          "type": "uint256"
        }
      ],
      "name": "Voted",
      "type": "event"
    },
    {
      "inputs": [],
      "name": "admin",
      "outputs": [
        {
          "internalType": "address",
          "name": "",
          "type": "address"
        }
      ],
      "stateMutability": "view",
      "type": "function",
      "constant": true
    },
    {
      "inputs": [
        {
          "internalType": "string",
          "name": "",
          "type": "string"
        }
      ],
      "name": "candidateNames",
      "outputs": [
        {
          "internalType": "bool",
          "name": "",
          "type": "bool"
        }
      ],
      "stateMutability": "view",
      "type": "function",
      "constant": true
    },
    {
      "inputs": [
        {
          "internalType": "uint256",
          "name": "",
          "type": "uint256"
        }
      ],
      "name": "candidates",
      "outputs": [
        {
          "internalType": "uint256",
          "name": "id",
          "type": "uint256"
        },
        {
          "internalType": "string",
          "name": "name",
          "type": "string"
        },
        {
          "internalType": "uint256",
          "name": "voteCount",
          "type": "uint256"
        }
      ],
      "stateMutability": "view",
      "type": "function",
      "constant": true
    },
    {
      "inputs": [],
      "name": "candidatesCount",
      "outputs": [
        {
          "internalType": "uint256",
          "name": "",
          "type": "uint256"
        }
      ],
      "stateMutability": "view",
      "type": "function",
      "constant": true
    },
    {
      "inputs": [],
      "name": "creationTime",
      "outputs": [
        {
          "internalType": "uint256",
          "name": "",
          "type": "uint256"
        }
      ],
      "stateMutability": "view",
      "type": "function",
      "constant": true
    },
    {
      "inputs": [],
      "name": "endVotingTime",
      "outputs": [
        {
          "internalType": "uint256",
          "name": "",
          "type": "uint256"
        }
      ],
      "stateMutability": "view",
      "type": "function",
      "constant": true
    },
    {
      "inputs": [],
      "name": "maxCandidatesCount",
      "outputs": [
        {
          "internalType": "uint256",
          "name": "",
          "type": "uint256"
        }
      ],
      "stateMutability": "view",
      "type": "function",
      "constant": true
    },
    {
      "inputs": [
        {
          "internalType": "address",
          "name": "",
          "type": "address"
        }
      ],
      "name": "voters",
      "outputs": [
        {
          "internalType": "bool",
          "name": "hasVoted",
          "type": "bool"
        },
        {
          "internalType": "uint256",
          "name": "votedCandidateId",
          "type": "uint256"
        },
        {
          "internalType": "uint256",
          "name": "votedTime",
          "type": "uint256"
        }
      ],
      "stateMutability": "view",
      "type": "function",
      "constant": true
    },
    {
      "inputs": [],
      "name": "votesCount",
      "outputs": [
        {
          "internalType": "uint256",
          "name": "",
          "type": "uint256"
        }
      ],
      "stateMutability": "view",
      "type": "function",
      "constant": true
    },
    {
      "inputs": [
        {
          "internalType": "string",
          "name": "_name",
          "type": "string"
        }
      ],
      "name": "addCandidate",
      "outputs": [],
      "stateMutability": "nonpayable",
      "type": "function"
    },
    {
      "inputs": [
        {
          "internalType": "uint256",
          "name": "_candidateId",
          "type": "uint256"
        }
      ],
      "name": "vote",
      "outputs": [],
      "stateMutability": "nonpayable",
      "type": "function"
    },
    {
      "inputs": [],
      "name": "getAllCandidates",
      "outputs": [
        {
          "components": [
            {
              "internalType": "uint256",
              "name": "id",
              "type": "uint256"
            },
            {
              "internalType": "string",
              "name": "name",
              "type": "string"
            },
            {
              "internalType": "uint256",
              "name": "voteCount",
              "type": "uint256"
            }
          ],
          "internalType": "struct Votier.Candidate[]",
          "name": "",
          "type": "tuple[]"
        }
      ],
      "stateMutability": "view",
      "type": "function",
      "constant": true
    },
    {
      "inputs": [],
      "name": "getWinner",
      "outputs": [
        {
          "internalType": "uint256",
          "name": "winnerId",
          "type": "uint256"
        },
        {
          "internalType": "string",
          "name": "winnerName",
          "type": "string"
        },
        {
          "internalType": "uint256",
          "name": "highestVotes",
          "type": "uint256"
        }
      ],
      "stateMutability": "view",
      "type": "function",
      "constant": true
    }
  ],
  "bytecode": "0x60c06040523480156200001157600080fd5b50604051620020ec380380620020ec833981810160405281019062000037919062000268565b60006103e8826200004991906200030d565b90506001831180156200005c5750603283105b6200009e576040517f08c379a00000000000000000000000000000000000000000000000000000000081526004016200009590620003cc565b60405180910390fd5b428111620000e3576040517f08c379a0000000000000000000000000000000000000000000000000000000008152600401620000da9062000464565b60405180910390fd5b61012c42620000f3919062000486565b81101562000138576040517f08c379a00000000000000000000000000000000000000000000000000000000081526004016200012f9062000559565b60405180910390fd5b42608081815250508060a0818152505082600581905550336000806101000a81548173ffffffffffffffffffffffffffffffffffffffff021916908373ffffffffffffffffffffffffffffffffffffffff1602179055507f5241ea49209ad1d2ebe33c2a6d1bc23e7f01b91278237320a96f9b44da5d471260008054906101000a900473ffffffffffffffffffffffffffffffffffffffff16604051620001e09190620005c0565b60405180910390a17f0d0ebe685f2c334e83847eb5e89a8d3d8919558c63ef37cf7fc3e7b86dd88b6d604051620002179062000653565b60405180910390a150505062000675565b600080fd5b6000819050919050565b62000242816200022d565b81146200024e57600080fd5b50565b600081519050620002628162000237565b92915050565b6000806040838503121562000282576200028162000228565b5b6000620002928582860162000251565b9250506020620002a58582860162000251565b9150509250929050565b7f4e487b7100000000000000000000000000000000000000000000000000000000600052601260045260246000fd5b7f4e487b7100000000000000000000000000000000000000000000000000000000600052601160045260246000fd5b60006200031a826200022d565b915062000327836200022d565b9250826200033a5762000339620002af565b5b828204905092915050565b600082825260208201905092915050565b7f43616e64696461746573206d757374206265206174206c656173742074776f2060008201527f70656f706c6520616e64203c35302e0000000000000000000000000000000000602082015250565b6000620003b4602f8362000345565b9150620003c18262000356565b604082019050919050565b60006020820190508181036000830152620003e781620003a5565b9050919050565b7f456e6420766f74696e672074696d65206d75737420626520696e20746865206660008201527f7574757265000000000000000000000000000000000000000000000000000000602082015250565b60006200044c60258362000345565b91506200045982620003ee565b604082019050919050565b600060208201905081810360008301526200047f816200043d565b9050919050565b600062000493826200022d565b9150620004a0836200022d565b9250827fffffffffffffffffffffffffffffffffffffffffffffffffffffffffffffffff03821115620004d857620004d7620002de565b5b828201905092915050565b7f566f74696e67206d757374206c617374206174206c656173742035206d696e7560008201527f7465730000000000000000000000000000000000000000000000000000000000602082015250565b60006200054160238362000345565b91506200054e82620004e3565b604082019050919050565b60006020820190508181036000830152620005748162000532565b9050919050565b600073ffffffffffffffffffffffffffffffffffffffff82169050919050565b6000620005a8826200057b565b9050919050565b620005ba816200059b565b82525050565b6000602082019050620005d76000830184620005af565b92915050565b7f566f74696e6753797374656d206465706c6f796564207375636365737366756c60008201527f6c79210000000000000000000000000000000000000000000000000000000000602082015250565b60006200063b60238362000345565b91506200064882620005dd565b604082019050919050565b600060208201905081810360008301526200066e816200062c565b9050919050565b60805160a051611a3c620006b06000396000818161029401528181610532015281816108110152610a6f01526000610c5d0152611a3c6000f3fe608060405234801561001057600080fd5b50600436106100cf5760003560e01c806378b0f9491161008c578063a3ec138d11610066578063a3ec138d146101f4578063d8270dce14610226578063dea3381514610244578063f851a44014610274576100cf565b806378b0f949146101985780638778b27d146101b65780638e7ea5b2146101d4576100cf565b80630121b93f146100d45780631961847b146100f05780632d35a8a21461010e5780632e6997fe1461012c5780633477ee2e1461014a578063462e91ec1461017c575b600080fd5b6100ee60048036038101906100e99190610de7565b610292565b005b6100f8610530565b6040516101059190610e23565b60405180910390f35b610116610554565b6040516101239190610e23565b60405180910390f35b61013461055a565b6040516101419190610ff8565b60405180910390f35b610164600480360381019061015f9190610de7565b6106cf565b60405161017393929190611064565b60405180910390f35b610196600480360381019061019191906111d7565b610781565b005b6101a0610a5b565b6040516101ad9190610e23565b60405180910390f35b6101be610a61565b6040516101cb9190610e23565b60405180910390f35b6101dc610a67565b6040516101eb93929190611064565b60405180910390f35b61020e6004803603810190610209919061127e565b610c24565b60405161021d939291906112c6565b60405180910390f35b61022e610c5b565b60405161023b9190610e23565b60405180910390f35b61025e600480360381019061025991906111d7565b610c7f565b60405161026b91906112fd565b60405180910390f35b61027c610cb5565b6040516102899190611327565b60405180910390f35b7f000000000000000000000000000000000000000000000000000000000000000042106102f4576040517f08c379a00000000000000000000000000000000000000000000000000000000081526004016102eb9061138e565b60405180910390fd5b600260003373ffffffffffffffffffffffffffffffffffffffff1673ffffffffffffffffffffffffffffffffffffffff16815260200190815260200160002060000160009054906101000a900460ff1615610384576040517f08c379a000000000000000000000000000000000000000000000000000000000815260040161037b906113fa565b60405180910390fd5b60008111801561039657506004548111155b6103d5576040517f08c379a00000000000000000000000000000000000000000000000000000000081526004016103cc90611466565b60405180910390fd5b60016004541161041a576040517f08c379a0000000000000000000000000000000000000000000000000000000008152600401610411906114f8565b60405180910390fd5b604051806060016040528060011515815260200182815260200142815250600260003373ffffffffffffffffffffffffffffffffffffffff1673ffffffffffffffffffffffffffffffffffffffff16815260200190815260200160002060008201518160000160006101000a81548160ff02191690831515021790555060208201518160010155604082015181600201559050506001600082815260200190815260200160002060020160008154809291906104d590611547565b9190505550600360008154809291906104ed90611547565b91905055507fea66f58e474bc09f580000e81f31b334d171db387d0c6098ba47bd897741679b3382426040516105259392919061158f565b60405180910390a150565b7f000000000000000000000000000000000000000000000000000000000000000081565b60045481565b6060600060045467ffffffffffffffff81111561057a576105796110ac565b5b6040519080825280602002602001820160405280156105b357816020015b6105a0610cd9565b8152602001906001900390816105985790505b5090506000600190505b60045481116106c75760016000828152602001908152602001600020604051806060016040529081600082015481526020016001820180546105fe906115f5565b80601f016020809104026020016040519081016040528092919081815260200182805461062a906115f5565b80156106775780601f1061064c57610100808354040283529160200191610677565b820191906000526020600020905b81548152906001019060200180831161065a57829003601f168201915b50505050508152602001600282015481525050826001836106989190611626565b815181106106a9576106a861165a565b5b602002602001018190525080806106bf90611547565b9150506105bd565b508091505090565b60016020528060005260406000206000915090508060000154908060010180546106f8906115f5565b80601f0160208091040260200160405190810160405280929190818152602001828054610724906115f5565b80156107715780601f1061074657610100808354040283529160200191610771565b820191906000526020600020905b81548152906001019060200180831161075457829003601f168201915b5050505050908060020154905083565b60008054906101000a900473ffffffffffffffffffffffffffffffffffffffff1673ffffffffffffffffffffffffffffffffffffffff163373ffffffffffffffffffffffffffffffffffffffff161461080f576040517f08c379a0000000000000000000000000000000000000000000000000000000008152600401610806906116fb565b60405180910390fd5b7f00000000000000000000000000000000000000000000000000000000000000004210610871576040517f08c379a00000000000000000000000000000000000000000000000000000000081526004016108689061138e565b60405180910390fd5b600454600554116108b7576040517f08c379a00000000000000000000000000000000000000000000000000000000081526004016108ae9061178d565b60405180910390fd5b60008151116108fb576040517f08c379a00000000000000000000000000000000000000000000000000000000081526004016108f2906117f9565b60405180910390fd5b60068160405161090b9190611855565b908152602001604051809103902060009054906101000a900460ff1615610967576040517f08c379a000000000000000000000000000000000000000000000000000000000815260040161095e906118b8565b60405180910390fd5b6004600081548092919061097a90611547565b91905055506040518060600160405280600454815260200182815260200160008152506001600060045481526020019081526020016000206000820151816000015560208201518160010190805190602001906109d8929190610cfa565b506040820151816002015590505060016006826040516109f89190611855565b908152602001604051809103902060006101000a81548160ff0219169083151502179055507fe83b2a43e7e82d975c8a0a6d2f045153c869e111136a34d1889ab7b598e396a360045482604051610a509291906118d8565b60405180910390a150565b60055481565b60035481565b6000606060007f00000000000000000000000000000000000000000000000000000000000000004211610acf576040517f08c379a0000000000000000000000000000000000000000000000000000000008152600401610ac690611954565b60405180910390fd5b600160045411610b14576040517f08c379a0000000000000000000000000000000000000000000000000000000008152600401610b0b906119e6565b60405180910390fd5b6000806000600190505b6004548111610b75578260016000838152602001908152602001600020600201541115610b6257600160008281526020019081526020016000206002015492508091505b8080610b6d90611547565b915050610b1e565b50809450600160008281526020019081526020016000206001018054610b9a906115f5565b80601f0160208091040260200160405190810160405280929190818152602001828054610bc6906115f5565b8015610c135780601f10610be857610100808354040283529160200191610c13565b820191906000526020600020905b815481529060010190602001808311610bf657829003601f168201915b505050505093508192505050909192565b60026020528060005260406000206000915090508060000160009054906101000a900460ff16908060010154908060020154905083565b7f000000000000000000000000000000000000000000000000000000000000000081565b6006818051602081018201805184825260208301602085012081835280955050505050506000915054906101000a900460ff1681565b60008054906101000a900473ffffffffffffffffffffffffffffffffffffffff1681565b60405180606001604052806000815260200160608152602001600081525090565b828054610d06906115f5565b90600052602060002090601f016020900481019282610d285760008555610d6f565b82601f10610d4157805160ff1916838001178555610d6f565b82800160010185558215610d6f579182015b82811115610d6e578251825591602001919060010190610d53565b5b509050610d7c9190610d80565b5090565b5b80821115610d99576000816000905550600101610d81565b5090565b6000604051905090565b600080fd5b600080fd5b6000819050919050565b610dc481610db1565b8114610dcf57600080fd5b50565b600081359050610de181610dbb565b92915050565b600060208284031215610dfd57610dfc610da7565b5b6000610e0b84828501610dd2565b91505092915050565b610e1d81610db1565b82525050565b6000602082019050610e386000830184610e14565b92915050565b600081519050919050565b600082825260208201905092915050565b6000819050602082019050919050565b610e7381610db1565b82525050565b600081519050919050565b600082825260208201905092915050565b60005b83811015610eb3578082015181840152602081019050610e98565b83811115610ec2576000848401525b50505050565b6000601f19601f8301169050919050565b6000610ee482610e79565b610eee8185610e84565b9350610efe818560208601610e95565b610f0781610ec8565b840191505092915050565b6000606083016000830151610f2a6000860182610e6a565b5060208301518482036020860152610f428282610ed9565b9150506040830151610f576040860182610e6a565b508091505092915050565b6000610f6e8383610f12565b905092915050565b6000602082019050919050565b6000610f8e82610e3e565b610f988185610e49565b935083602082028501610faa85610e5a565b8060005b85811015610fe65784840389528151610fc78582610f62565b9450610fd283610f76565b925060208a01995050600181019050610fae565b50829750879550505050505092915050565b600060208201905081810360008301526110128184610f83565b905092915050565b600082825260208201905092915050565b600061103682610e79565b611040818561101a565b9350611050818560208601610e95565b61105981610ec8565b840191505092915050565b60006060820190506110796000830186610e14565b818103602083015261108b818561102b565b905061109a6040830184610e14565b949350505050565b600080fd5b600080fd5b7f4e487b7100000000000000000000000000000000000000000000000000000000600052604160045260246000fd5b6110e482610ec8565b810181811067ffffffffffffffff82111715611103576111026110ac565b5b80604052505050565b6000611116610d9d565b905061112282826110db565b919050565b600067ffffffffffffffff821115611142576111416110ac565b5b61114b82610ec8565b9050602081019050919050565b82818337600083830152505050565b600061117a61117584611127565b61110c565b905082815260208101848484011115611196576111956110a7565b5b6111a1848285611158565b509392505050565b600082601f8301126111be576111bd6110a2565b5b81356111ce848260208601611167565b91505092915050565b6000602082840312156111ed576111ec610da7565b5b600082013567ffffffffffffffff81111561120b5761120a610dac565b5b611217848285016111a9565b91505092915050565b600073ffffffffffffffffffffffffffffffffffffffff82169050919050565b600061124b82611220565b9050919050565b61125b81611240565b811461126657600080fd5b50565b60008135905061127881611252565b92915050565b60006020828403121561129457611293610da7565b5b60006112a284828501611269565b91505092915050565b60008115159050919050565b6112c0816112ab565b82525050565b60006060820190506112db60008301866112b7565b6112e86020830185610e14565b6112f56040830184610e14565b949350505050565b600060208201905061131260008301846112b7565b92915050565b61132181611240565b82525050565b600060208201905061133c6000830184611318565b92915050565b7f566f74696e6720636c6f7365642064756520746f20646174652e000000000000600082015250565b6000611378601a8361101a565b915061138382611342565b602082019050919050565b600060208201905081810360008301526113a78161136b565b9050919050565b7f596f75206861766520616c726561647920766f74656400000000000000000000600082015250565b60006113e460168361101a565b91506113ef826113ae565b602082019050919050565b60006020820190508181036000830152611413816113d7565b9050919050565b7f496e76616c69642063616e646964617465204944000000000000000000000000600082015250565b600061145060148361101a565b915061145b8261141a565b602082019050919050565b6000602082019050818103600083015261147f81611443565b9050919050565b7f5468657265206d757374206265206174206c656173742074776f2063616e646960008201527f646174657320666f72206120766f746520746f20626520636173742e00000000602082015250565b60006114e2603c8361101a565b91506114ed82611486565b604082019050919050565b60006020820190508181036000830152611511816114d5565b9050919050565b7f4e487b7100000000000000000000000000000000000000000000000000000000600052601160045260246000fd5b600061155282610db1565b91507fffffffffffffffffffffffffffffffffffffffffffffffffffffffffffffffff820361158457611583611518565b5b600182019050919050565b60006060820190506115a46000830186611318565b6115b16020830185610e14565b6115be6040830184610e14565b949350505050565b7f4e487b7100000000000000000000000000000000000000000000000000000000600052602260045260246000fd5b6000600282049050600182168061160d57607f821691505b6020821081036116205761161f6115c6565b5b50919050565b600061163182610db1565b915061163c83610db1565b92508282101561164f5761164e611518565b5b828203905092915050565b7f4e487b7100000000000000000000000000000000000000000000000000000000600052603260045260246000fd5b7f4f6e6c792061646d696e2063616e20706572666f726d2074686973206163746960008201527f6f6e000000000000000000000000000000000000000000000000000000000000602082015250565b60006116e560228361101a565b91506116f082611689565b604082019050919050565b60006020820190508181036000830152611714816116d8565b9050919050565b7f43616e6469646174657320636f756e7420666f7220616e20656c656374696f6e60008201527f2063616e6e6f7420626520657175616c2077697468206d61782076616c756521602082015250565b600061177760408361101a565b91506117828261171b565b604082019050919050565b600060208201905081810360008301526117a68161176a565b9050919050565b7f43616e646964617465206e616d652063616e6e6f7420626520656d7074792e00600082015250565b60006117e3601f8361101a565b91506117ee826117ad565b602082019050919050565b60006020820190508181036000830152611812816117d6565b9050919050565b600081905092915050565b600061182f82610e79565b6118398185611819565b9350611849818560208601610e95565b80840191505092915050565b60006118618284611824565b915081905092915050565b7f43616e646964617465206e616d6520616c7265616479206578697374732e0000600082015250565b60006118a2601e8361101a565b91506118ad8261186c565b602082019050919050565b600060208201905081810360008301526118d181611895565b9050919050565b60006040820190506118ed6000830185610e14565b81810360208301526118ff818461102b565b90509392505050565b7f566f74696e6720636f6e74696e7565732064756520746f2074696d652e000000600082015250565b600061193e601d8361101a565b915061194982611908565b602082019050919050565b6000602082019050818103600083015261196d81611931565b9050919050565b7f5468657265206d757374206265206174206c656173742074776f2063616e646960008201527f646174657320666f72206120766f746520746f206765742077696e6e65722e00602082015250565b60006119d0603f8361101a565b91506119db82611974565b604082019050919050565b600060208201905081810360008301526119ff816119c3565b905091905056fea2646970667358221220e2f83b6b55ca384290b27973bbafee2ee6f8a9579aed8a6205629ad8e40952f764736f6c634300080d0033",
  "immutableReferences": {
    "18": [
      {
        "length": 32,
        "start": 3165
      }
    ],
    "20": [
      {
        "length": 32,
        "start": 660
      },
      {
        "length": 32,
        "start": 1330
      },
      {
        "length": 32,
        "start": 2065
      },
      {
        "length": 32,
        "start": 2671
      }
    ]
  },
  "source": "// SPDX-License-Identifier: MIT\npragma solidity ^0.8.13;\n\n/**\n * @title Votier\n * @dev A blockchain-based voting system for selecting the best candidate.\n * Admins can add candidates, and users can vote for their preferred candidate.\n * Ensures transparency and immutability of the voting process.\n */\ncontract Votier {\n    // Structure to hold candidate details\n    struct Candidate {\n        uint id; // Unique ID of the candidate\n        string name; // Name of the candidate\n        uint voteCount; // Total votes received by the candidate\n    }\n\n    // Structure to hold voter details\n    struct Voter {\n        bool hasVoted; // Whether the voter has already voted\n        uint votedCandidateId; // ID of the candidate the voter voted for\n        uint votedTime;\n    }\n\n    uint public immutable creationTime;\n    uint public immutable endVotingTime;\n\n    address public admin; // Address of the admin managing the voting system\n    mapping(uint => Candidate) public candidates; // Mapping of candidate ID to Candidate details\n    mapping(address => Voter) public voters; // Mapping of voter address to Voter details\n    uint public votesCount; // Total number of votes added\n    uint public candidatesCount; // Total number of candidates added\n    uint public maxCandidatesCount; // Max candidates can be joined to the election\n    mapping(string => bool) public candidateNames; // Mapping to track if a candidate name already exists\n\n    // Event emitted when a new candidate is added\n    event CandidateAdded(uint id, string name);\n\n    // Event emitted when a vote is cast\n    event Voted(address voter, uint candidateId, uint votedTime);\n\n    event AdminInitialized(address admin); // Debugging event\n    event ContractDeployed(string message); // Debugging event\n\n    // Modifier to restrict access to admin-only functions\n    modifier onlyAdmin() {\n        require(msg.sender == admin, \"Only admin can perform this action\");\n        _;\n    }\n\n    /**\n     * @dev Constructor sets the deploying address as the admin.\n     */\n    constructor(uint _maxCandidatesCount, uint _endVotingTime) {\n        uint normalizedEndVotingTime = _endVotingTime / 1000;\n        require(_maxCandidatesCount > 1 && _maxCandidatesCount < 50, \"Candidates must be at least two people and <50.\");\n        require(normalizedEndVotingTime > block.timestamp, \"End voting time must be in the future\");\n        require(normalizedEndVotingTime >= block.timestamp + 5 minutes, \"Voting must last at least 5 minutes\");\n\n        creationTime = block.timestamp;\n        endVotingTime = normalizedEndVotingTime;\n        maxCandidatesCount = _maxCandidatesCount;\n        admin = msg.sender;\n        emit AdminInitialized(admin);\n        emit ContractDeployed(\"VotingSystem deployed successfully!\");\n    }\n\n    /**\n     * @dev Adds a new candidate to the voting system.\n     * @param _name The name of the candidate to be added.\n     */\n    function addCandidate(string memory _name) public onlyAdmin {\n        require(block.timestamp < endVotingTime, \"Voting closed due to date.\");\n        require(maxCandidatesCount > candidatesCount, \"Candidates count for an election cannot be equal with max value!\");\n        require(bytes(_name).length > 0, \"Candidate name cannot be empty.\");\n        require(!candidateNames[_name], \"Candidate name already exists.\");\n        candidatesCount++;\n        candidates[candidatesCount] = Candidate(candidatesCount, _name, 0);\n        candidateNames[_name] = true; // Mark the name as used\n        emit CandidateAdded(candidatesCount, _name);\n    }\n\n    /**\n     * @dev Allows a user to vote for a candidate.\n     * @param _candidateId The ID of the candidate to vote for.\n     */\n    function vote(uint _candidateId) public {\n        require(block.timestamp < endVotingTime, \"Voting closed due to date.\");\n        require(!voters[msg.sender].hasVoted, \"You have already voted\");\n        require(_candidateId > 0 && _candidateId <= candidatesCount, \"Invalid candidate ID\");\n        require(candidatesCount > 1, \"There must be at least two candidates for a vote to be cast.\");\n\n        voters[msg.sender] = Voter(true, _candidateId, block.timestamp);\n        candidates[_candidateId].voteCount++;\n        votesCount++;\n\n        emit Voted(msg.sender, _candidateId, block.timestamp);\n    }\n\n    // Function to get a candidate by ID (no need to manually define it)\n    // The getter is automatically available due to `public` keyword in the mapping\n\n    // Function to get all candidates (iterate using candidatesCount)\n    function getAllCandidates() public view returns (Candidate[] memory) {\n        Candidate[] memory allCandidates = new Candidate[](candidatesCount);\n        \n        for (uint i = 1; i <= candidatesCount; i++) {\n            allCandidates[i - 1] = candidates[i];\n        }\n        \n        return allCandidates;\n    }\n    /**\n     * @dev Determines the winner of the voting process.\n     * @return winnerId The ID of the winning candidate.\n     * @return winnerName The name of the winning candidate.\n     * @return highestVotes The highest number of votes received by a candidate.\n     */\n    function getWinner() public view returns (uint winnerId, string memory winnerName, uint highestVotes) {\n        require(block.timestamp > endVotingTime, \"Voting continues due to time.\");\n        require(candidatesCount > 1, \"There must be at least two candidates for a vote to get winner.\");\n\n        uint highestVoteCount = 0;\n        uint winningCandidateId = 0;\n\n        for (uint i = 1; i <= candidatesCount; i++) {\n            if (candidates[i].voteCount > highestVoteCount) {\n                highestVoteCount = candidates[i].voteCount;\n                winningCandidateId = i;\n            }\n        }\n\n        winnerId = winningCandidateId;\n        winnerName = candidates[winningCandidateId].name;\n        highestVotes = highestVoteCount;\n    }\n}\n",
  "sourcePath": "/home/chev/Documents/projects/ofcskn/Votier/smart-contracts/contracts/Votier.sol",
  "compiler": {
    "name": "solc",
    "version": "0.8.13+commit.abaa5c0e.Emscripten.clang"
  },
  "schemaVersion": "3.4.16",
  "updatedAt": "2024-12-27T21:09:48.912Z",
  "networkType": "ethereum",
  "devdoc": {
    "details": "A blockchain-based voting system for selecting the best candidate. Admins can add candidates, and users can vote for their preferred candidate. Ensures transparency and immutability of the voting process.",
    "kind": "dev",
    "methods": {
      "addCandidate(string)": {
        "details": "Adds a new candidate to the voting system.",
        "params": {
          "_name": "The name of the candidate to be added."
        }
      },
      "constructor": {
        "details": "Constructor sets the deploying address as the admin."
      },
      "getWinner()": {
        "details": "Determines the winner of the voting process.",
        "returns": {
          "highestVotes": "The highest number of votes received by a candidate.",
          "winnerId": "The ID of the winning candidate.",
          "winnerName": "The name of the winning candidate."
        }
      },
      "vote(uint256)": {
        "details": "Allows a user to vote for a candidate.",
        "params": {
          "_candidateId": "The ID of the candidate to vote for."
        }
      }
    },
    "title": "Votier",
    "version": 1
  },
  "userdoc": {
    "kind": "user",
    "methods": {},
    "version": 1
  }
}